:020000040800F2
:1000000000000120E5270008AD250008AF25000805
:10001000B1250008B3250008B52500080000000040
:10002000000000000000000000000000B7250008EC
:10003000B925000800000000BB250008BD25000808
:100040002D2800082D2800082D2800082D2800083C
:100050002D2800082D2800082D2800082D2800082C
:100060002D2800082D2800082D2800082D2800081C
:100070002D2800082D2800082D2800082D2800080C
:100080002D2800082D2800082D2800082D280008FC
:100090002D2800082D2800082D2800082D280008EC
:1000A0002D2800082D2800082D2800082D280008DC
:1000B0002D2800082D2800082D2800082D280008CC
:1000C0002D2800082D2800082D2800082D280008BC
:1000D0002D2800082D2800082D2800082D280008AC
:1000E0002D2800082D2800082D2800082D2800089C
:1000F0002D2800082D2800082D2800082D2800088C
:100100002D2800082D2800082D2800082D2800087B
:100110002D2800082D2800082D2800082D2800086B
:100120002D2800082D2800082D2800082D2800085B
:1001300000000000000000000000000000000000BF
:1001400000000000000000000000000000000000AF
:10015000000000000000000000000000000000009F
:10016000000000000000000000000000000000008F
:10017000000000000000000000000000000000007F
:10018000000000000000000000000000000000006F
:10019000000000000000000000000000000000005F
:1001A000000000000000000000000000000000004F
:1001B000000000000000000000000000000000003F
:1001C000000000000000000000000000000000002F
:1001D000000000000000000000000000000000001F
:0401E0005FF8E0F1F3
:1001E80010B5054C237833B9044B13B10448AFF369
:1001F80000800123237010BDE801002000000000EA
:10020800DC4E000808B5034B1BB103490348AFF3A4
:10021800008008BD00000000EC010020DC4E000852
:1002280081F0004102E000BF83F0004330B54FEA9F
:1002380041044FEA430594EA050F08BF90EA020F0C
:100248001FBF54EA000C55EA020C7FEA645C7FEA9F
:10025800655C00F0E2804FEA5454D4EB5555B8BFC2
:100268006D420CDD2C4480EA020281EA030382EA33
:10027800000083EA010180EA020281EA0303362DC5
:1002880088BF30BD11F0004F4FEA01314FF4801C98
:100298004CEA113102D0404261EB410113F0004FAA
:1002A8004FEA03334CEA133302D0524263EB430361
:1002B80094EA050F00F0A780A4F10104D5F1200EFF
:1002C8000DDB02FA0EFC22FA05F2801841F100015A
:1002D80003FA0EF2801843FA05F359410EE0A5F12E
:1002E80020050EF1200E012A03FA0EFC28BF4CF05F
:1002F800020C43FA05F3C01851EBE37101F0004515
:1003080007D54FF0000EDCF1000C7EEB00006EEB21
:100318000101B1F5801F1BD3B1F5001F0CD34908AB
:100328005FEA30004FEA3C0C04F101044FEA445202
:1003380012F5800F80F09A80BCF1004F08BF5FEA89
:10034800500C50F1000041EB045141EA050130BD69
:100358005FEA4C0C404141EB010111F4801FA4F10C
:100368000104E9D191F0000F04BF01460020B1FA61
:1003780081F308BF2033A3F10B03B3F120020CDA99
:100388000C3208DD02F1140CC2F10C0201FA0CF077
:1003980021FA02F10CE002F11402D8BFC2F1200CDC
:1003A80001FA02F120FA0CFCDCBF41EA0C01904092
:1003B800E41AA2BF01EB0451294330BD6FEA0404DB
:1003C8001F3C1CDA0C340EDC04F11404C4F12002C6
:1003D80020FA04F001FA02F340EA030021FA04F3D8
:1003E80045EA030130BDC4F10C04C4F1200220FA2F
:1003F80002F001FA04F340EA0300294630BD21FA6D
:1004080004F0294630BD94F0000F83F4801306BF32
:1004180081F480110134013D4EE77FEA645C18BF26
:100428007FEA655C29D094EA050F08BF90EA020FBD
:1004380005D054EA000C04BF1946104630BD91EAB5
:10044800030F1EBF0021002030BD5FEA545C05D1B8
:100458004000494128BF41F0004130BD14F58004F7
:100468003CBF01F5801130BD01F0004545F0FE416B
:1004780041F470014FF0000030BD7FEA645C1ABFA0
:10048800194610467FEA655C1CBF0B46024650EAD7
:10049800013406BF52EA033591EA030F41F4002103
:1004A80030BD00BF90F0000F04BF0021704730B589
:1004B8004FF4806404F132044FF000054FF000015E
:1004C80050E700BF90F0000F04BF0021704730B51F
:1004D8004FF4806404F1320410F0004548BF4042F4
:1004E8004FF000013EE700BF42004FEAE2014FEA49
:1004F80031014FEA02701FBF12F07F4393F07F4F24
:1005080081F06051704732F07F4208BF704793F026
:100518007F4F04BF41F40021704730B54FF4607439
:1005280001F0004521F000411CE700BF50EA01023C
:1005380008BF704730B54FF000050AE050EA0102E5
:1005480008BF704730B511F0004502D5404261EB55
:1005580041014FF4806404F132045FEA915C3FF496
:10056800D8AE4FF003025FEADC0C18BF03325FEA33
:10057800DC0C18BF033202EBDC02C2F1200300FAE4
:1005880003FC20FA02F001FA03FE40EA0E0021FA09
:1005980002F11444BDE600BF70B54FF0FF0C4CF4F7
:1005A800E06C1CEA11541DBF1CEA135594EA0C0FA9
:1005B80095EA0C0F00F0DEF82C4481EA030621EAE4
:1005C8004C5123EA4C5350EA013518BF52EA03351F
:1005D80041F4801143F4801338D0A0FB02CE4FF0D1
:1005E8000005E1FB02E506F00042E0FB03E54FF001
:1005F8000006E1FB03569CF0000F18BF4EF0010EF9
:10060800A4F1FF04B6F5007F64F5407404D25FEAF4
:100618004E0E6D4146EB060642EAC62141EA5551A7
:100628004FEAC52040EA5E504FEACE2EB4F1FD0CE9
:1006380088BFBCF5E06F1ED8BEF1004F08BF5FEA67
:10064800500E50F1000041EB045170BD06F0004619
:1006580046EA010140EA020081EA0301B4EB5C04C6
:10066800C2BFD4EB0C0541EA045170BD41F48011BE
:100678004FF0000E013C00F3AB8014F1360FDEBFE3
:10068800002001F0004170BDC4F10004203C35DABF
:100698000C341BDC04F11404C4F1200500FA05F342
:1006A80020FA04F001FA05F240EA020001F00042E3
:1006B80021F0004110EBD37021FA04F642EB060159
:1006C8005EEA430E08BF20EAD37070BDC4F10C0483
:1006D800C4F1200500FA04F320FA05F001FA04F247
:1006E80040EA020001F0004110EBD37041F1000133
:1006F8005EEA430E08BF20EAD37070BDC4F120053E
:1007080000FA05F24EEA020E20FA04F301FA05F2A5
:1007180043EA020321FA04F001F0004121FA04F24D
:1007280020EA020000EBD3705EEA430E08BF20EA1D
:10073800D37070BD94F0000F0FD101F00046400057
:1007480041EB010111F4801F08BF013CF7D041EAD9
:10075800060195F0000F18BF704703F000465200DD
:1007680043EB030313F4801F08BF013DF7D043EAAE
:100778000603704794EA0C0F0CEA135518BF95EA64
:100788000C0F0CD050EA410618BF52EA4306D1D1EB
:1007980081EA030101F000414FF0000070BD50EA0A
:1007A800410606BF1046194652EA430619D094EA94
:1007B8000C0F02D150EA013613D195EA0C0F05D17E
:1007C80052EA03361CBF104619460AD181EA0301D2
:1007D80001F0004141F0FE4141F470014FF000008A
:1007E80070BD41F0FE4141F4780170BD70B54FF025
:1007F800FF0C4CF4E06C1CEA11541DBF1CEA1355A5
:1008080094EA0C0F95EA0C0F00F0A7F8A4EB050486
:1008180081EA030E52EA03354FEA013100F088807D
:100828004FEA03334FF0805545EA131343EA126346
:100838004FEA022245EA111545EA10654FEA0026FB
:100848000EF000419D4208BF964244F1FD0404F5B4
:10085800407402D25B084FEA3202B61A65EB030510
:100868005B084FEA32024FF480104FF4002CB6EBCD
:10087800020E75EB030E22BFB61A754640EA0C004D
:100888005B084FEA3202B6EB020E75EB030E22BF8D
:10089800B61A754640EA5C005B084FEA3202B6EBCE
:1008A800020E75EB030E22BFB61A754640EA9C008D
:1008B8005B084FEA3202B6EB020E75EB030E22BF5D
:1008C800B61A754640EADC0055EA060E18D04FEA1B
:1008D800051545EA16754FEA06164FEAC30343EABB
:1008E80052734FEAC2025FEA1C1CC0D111F4801F88
:1008F8000BD141EA00014FF000004FF0004CB6E781
:1009080011F4801F04BF01430020B4F1FD0C88BF1F
:10091800BCF5E06F3FF6AFAEB5EB030C04BFB6EB2A
:10092800020C5FEA500C50F1000041EB045170BD1D
:100938000EF0004E4EEA113114EB5C04C2BFD4EB4A
:100948000C0541EA045170BD41F480114FF0000ECE
:10095800013C90E645EA060E8DE60CEA135594EA4A
:100968000C0F08BF95EA0C0F3FF43BAF94EA0C0F4D
:100978000AD150EA01347FF434AF95EA0C0F7FF4C2
:1009880025AF104619462CE795EA0C0F06D152EA16
:1009980003353FF4FDAE1046194622E750EA4106FA
:1009A80018BF52EA43067FF4C5AE50EA41047FF40B
:1009B8000DAF52EA43057FF4EBAE12E742000ED2C8
:1009C800B2F1FE4F0BD34FF09E03B3EB126209D482
:1009D8004FEA002343F0004323FA02F070474FF038
:1009E8000000704712F1610F01D1420202D14FF0AD
:1009F800FF3070474FF00000704700BF034613F800
:100A0800012B002AFBD1181A013870474FF0FF3C20
:100A180006E000BF4FF0010C02E000BF4FF0010CF0
:100A28004DF804CD4FEA410C7FEA6C5C4FEA430C69
:100A380018BF7FEA6C5C1BD001B050EA410C0CBFB8
:100A480052EA430C91EA030F02BF90EA020F00201A
:100A5800704710F1000F91EA030F58BF994208BF81
:100A680090422CBFD8176FEAE37040F0010070473E
:100A78004FEA410C7FEA6C5C02D150EA013C07D195
:100A88004FEA430C7FEA6C5CD6D152EA033CD3D0E0
:100A98005DF8040B704700BF8446104662468C46DA
:100AA8001946634600E000BF01B5FFF7B7FF00280D
:100AB80048BF10F1000F01BD4DF808EDFFF7F4FF36
:100AC8000CBF012000205DF808FB00BF4DF808EDC1
:100AD800FFF7EAFF34BF012000205DF808FB00BFE4
:100AE8004DF808EDFFF7E0FF94BF012000205DF806
:100AF80008FB00BF4DF808EDFFF7CEFF94BF0120BB
:100B080000205DF808FB00BF4DF808EDFFF7C4FFB3
:100B180034BF012000205DF808FB00BF4FEA410CFC
:100B28007FEA6C5C02D150EA013C0AD14FEA430CDF
:100B38007FEA6C5C02D152EA033C02D14FF000001C
:100B480070474FF0010070474FEA410212F500125A
:100B580015D211D56FF47873B3EB625212D94FEAFC
:100B6800C12343F0004343EA505311F0004F23FAE6
:100B780002F018BF404270474FF00000704750EA3B
:100B8800013005D111F0004008BF6FF000407047F8
:100B98004FF00000704700BF10B504460E4B1878A0
:100BA8004FF47A73B3FBF0F30C4A1068B0FBF3F020
:100BB80000F03AFB68B90F2C01D901200AE00022A5
:100BC80021464FF0FF3000F0FBFA034B5C60002039
:100BD80000E0012010BD00BF00000020140000202C
:100BE80008B5074A136843F010031360032000F0A8
:100BF800D5FA0020FFF7D0FF01F0B2FC002008BDB5
:100C080000200240034A1168034B1B780B44136011
:100C1800704700BF1C02002000000020014B18682C
:100C2800704700BF1C02002038B50446FFF7F6FFE6
:100C38000546B4F1FF3F02D0044B1B781C44FFF774
:100C4800EDFF401BA042FAD338BD00BF00000020D2
:100C58000368D86C7047000030B482B00023019359
:100C680090F82430012B00F08B800246012380F895
:100C780024304B68062B29D80568686B03EB83037F
:100C8800053B1F249C4020EA04000C6804FA03F387
:100C980003436B630B68092B38D91568E86803EBC5
:100CA80043031E3B07249C4020EA04008C6804FA96
:100CB80003F30343EB600B68103B012B34D900208E
:100CC800002382F8243002B030BC70470C2B0ED8B9
:100CD8000568286B03EB8303233B1F249C4020EA11
:100CE80004000C6804FA03F303432B63D2E7056896
:100CF800E86A03EB8303413B1F249C4020EA04007D
:100D08000C6804FA03F30343EB62C3E71568286928
:100D180003EB430307249C4020EA04008C6804FA90
:100D280003F303432B61C6E713681648834205D0D3
:100D3800936A43F0200393620120C1E7986810F496
:100D4800000F1BD1986840F4000098600B68102BC6
:100D580001D00020B4E70C4B1B680C49A1FB03131E
:100D68009B0C03EB83035900019102E0019B013BBB
:100D78000193019B002BF9D10020A1E700209FE7F8
:100D88000220A0E7002401401400002083DE1B435A
:100D980030B583B00023019303689A6812F0010FFD
:100DA8002ED19A6842F001029A60174B1B68174AC5
:100DB800A2FB03239B0C019302E0019B013B0193DF
:100DC800019B002BF9D10446FFF728FF054623684D
:100DD8009B6813F0010F11D1FFF720FF401B022879
:100DE800F5D9A36A43F01003A362E36A43F0010351
:100DF800E362002384F82430012002E0002000E0B0
:100E0800002003B030BD00BF1400002083DE1B4368
:100E180090F82430012B6AD010B50446012380F8DD
:100E28002430FFF7B5FF024600285BD1A36A23F4FC
:100E3800407323F0010343F48073A36223682D49B0
:100E48008B4227D0A16A21F48011A162596811F45C
:100E5800806F05D0A16A21F4405141F48051A1620C
:100E6800A16A11F4805F2BD0E16A21F00601E162EA
:100E7800002184F824106FF0020119602368996832
:100E880001F46021B1F5602F1DD0996841F48011FB
:100E980099602AE0A1F58061496811F4702FD1D0DA
:100EA800A16A41F48011A1621349496811F4806F65
:100EB800D6D0A16A21F4405141F48051A162CFE714
:100EC8000021E162D4E70B498B4204D0996841F4D0
:100ED800A001996009E0A1F58061496811F4702FBB
:100EE800D3D1F3E7002384F82430104610BD022242
:100EF80010467047002801400024014038B50368B7
:100F08009A6812F0010F01D1002038BD04469A6892
:100F180022F001029A60FFF781FE054623689B686C
:100F280013F0010F0ED0FFF779FE401B0228F5D908
:100F3800A36A43F01003A362E36A43F00103E36288
:100F48000120E2E70020E0E7002800F08A8070B581
:100F58000446836A002B36D02046FFF7CFFFA36AEA
:100F680013F0100377D1002875D1A26A22F48852B1
:100F780022F0020242F00202A262626825683A493F
:100F88008D4226D0E1690A43267B42EA4602A168DF
:100F9800B1F5807F27D0012922D0217D012925D0D4
:100FA800696821F469410B436B6021688D682F4B98
:100FB8002B4013438B60A368B3F5807F27D0012BA8
:100FC80025D0002126E0C36280F8243001F042F9E0
:100FD800C2E7E169B1F5402FD5D14FF40021D2E73E
:100FE8004FF48073D9E74FF48073D6E736B9A16917
:100FF800013943EA413343F40063D1E7A16A41F080
:101008002001A162E16A41F00101E162C8E72369B8
:10101800013B19052568EB6A23F470030B43EB6267
:1010280023689968124B0B409A420BD0A36A23F0AD
:10103800120343F01003A362E36A43F00103E3627F
:1010480001200DE00023E362A36A23F0030343F0C9
:101058000103A36204E0A36A43F01003A362012022
:1010680070BD0120704700BF003C0140FDF7E1FF63
:10107800FE0E1FFF90F82430012B15D010B5044642
:10108800012380F82430FFF739FF024638B9A36AF4
:1010980023F4885323F0010343F00103A3620023E0
:1010A80084F82430104610BD022210467047000014
:1010B80070B582B00023019390F82430012B68D0DA
:1010C8000446012380F82430FFF718FF054628B1AD
:1010D800002384F82430284602B070BDA36A23F4A4
:1010E800885323F0020343F00203A3622A4B1E68CD
:1010F800022000F069FDB6FBF0F04000019002E02C
:10110800019B013B0193019B002BF9D12046FFF77E
:101118003FFE2268936843F008039360FFF77EFD63
:10112800064623689A6812F0080F0FD0FFF776FD7D
:10113800801B0A28F5D9A36A23F0120343F0100391
:10114800A362002384F824300125C4E79A6842F09A
:1011580004029A60FFF762FD064623689B6813F055
:10116800040F0FD0FFF75AFD801B0A28F5D9A36A90
:1011780023F0120343F01003A362002384F8243001
:101188000125A8E7A36A23F0030343F00103A36240
:101198009EE702259FE700BF14000020074AD36896
:1011A80023F4E0631B041B0C000200F4E060184306
:1011B80040F0BF6040F40030D060704700ED00E0C0
:1011C80030B4174BDB68C3F30223C3F10704042CC4
:1011D80028BF04241D1D062D18D9033B4FF0FF35E9
:1011E80005FA04F421EA0401994005FA03F322EA16
:1011F8000303194300280BDB0901C9B200F1604061
:1012080000F5614080F8001330BC70470023E5E723
:1012180000F00F000901C9B2024B1954F4E700BFEE
:1012280000ED00E014ED00E00138B0F1807F0AD253
:10123800064B5860064AF02182F823100020986077
:1012480007221A6070470120704700BF10E000E0D5
:1012580000ED00E0F0B482B000263246ABE0002D8D
:1012680063D0012D00D1CE68FF2B72D88446FF2BA6
:1012780072D89500DCF800400F27AF4024EA070435
:1012880006FA05F52C43CCF800404C6814F0805F52
:1012980000F09080664CA56945F00105A561A46938
:1012A80004F001040194019C9508AF1C614C54F8AA
:1012B80027C002F00304A7000F24BC402CEA040C4A
:1012C8005D4CA0424ED004F58064A04200F08C80B2
:1012D80004F58064A04200F0898004F58064A0428F
:1012E80000F0868004F58064A04200F0838004F555
:1012F8008064A04234D0062435E0504FBD4214D05B
:101308000BD94F4FBD4210D007F58037BD420CD0E6
:10131800A7F58017BD42A7D107E0A7F58017BD4202
:1013280003D007F58037BD429ED18D687DB1012D70
:1013380008D04461082697E7CE68083694E7CE6857
:101348000C3691E7046108268EE700268CE7042610
:101358008AE700F1040C8AE7A2F10805AD0089E7E5
:10136800052400E00024BC4044EA0C040235314F57
:1013780047F825404C6814F4803F3DD0314D2C6827
:101388001C432C604C6814F4003F3BD02D4D6C6816
:101398001C436C604C6814F4801F39D0294DAC682C
:1013A8001C43AC604C6814F4001F37D0254DEC6822
:1013B8002343EB6001320B6833FA02F434D0012482
:1013C800944023409C42F5D14D68122DB7D094D853
:1013D800022DB1D07FF643AF032DB6D0112D7FF487
:1013E80043AFCE6804363FE70124BCE70224BAE7DE
:1013F8000324B8E70424B6E7124D2C6824EA030452
:101408002C60BFE70F4D6C6824EA03046C60C1E7E9
:101418000C4DAC6824EA0304AC60C3E7094DEC68E2
:1014280024EA0303EB60C5E702B0F0BC704700BFD5
:101438000010024000000140000801400000211097
:10144800000031100004014012B90904016170471D
:101458000161704782B0084B1B68084AA2FB03234E
:101468005B0A00FB03F0019000BF019B5A1E01922A
:10147800002BF9D102B0704714000020D34D621040
:10148800002800F0F58170B582B00446036813F0B7
:10149800010F2CD0AB4B5B6803F00C03042B1DD061
:1014A800A84B5B6803F00C03082B12D06368B3F5F4
:1014B800803F41D0002B55D103F1804303F504331D
:1014C8001A6822F480321A601A6822F480221A609C
:1014D80037E09C4B5B6813F4803FE7D0994B1B685F
:1014E80013F4003F03D06368002B00F0C381236826
:1014F80013F0020F76D0934B5B6813F00C0F5FD09C
:10150800904B5B6803F00C03082B54D02369002B25
:1015180000F08A808C4B01221A60FFF77FFB05469A
:10152800884B1B6813F0020F75D1FFF777FB401B40
:101538000228F5D90320A0E1824A136843F48033D6
:101548001360636843B3FFF769FB05467D4B1B686F
:1015580013F4003FCBD1FFF761FB401B6428F5D99A
:1015680003208AE1B3F5A02F09D0764B1A6822F43C
:1015780080321A601A6822F480221A60E1E703F1C7
:101588008043A3F53C331A6842F480221A601A6833
:1015980042F480321A60D4E7FFF740FB0546694BF6
:1015A8001B6813F4003FA2D0FFF738FB401B6428E8
:1015B800F5D9032061E1634B5B6813F4803FA5D143
:1015C800604B1B6813F0020F04D02369012B01D074
:1015D800012052E15B4A136823F0F803616943EA8A
:1015E800C1031360236813F0080F32D0A369002BDE
:1015F8005BD0564B01221A60FFF710FB0546514B92
:101608005B6A13F0020F21D1FFF708FB401B022889
:10161800F5D9032031E14B4A136823F0F8036169D7
:1016280043EAC1031360DDE7474B00221A60FFF766
:10163800F5FA0546434B1B6813F0020FD2D0FFF7AB
:10164800EDFA401B0228F5D9032016E10120FFF727
:1016580001FF236813F0040F00F09880394BDB6911
:1016680013F0805F33D1374BDA6942F08052DA6188
:10167800DB6903F080530193019B0125344B1B6800
:1016880013F4807F25D0E368012B36D0002B4CD192
:1016980003F1804303F504331A6A22F001021A6247
:1016A8001A6A22F004021A622CE0284B00221A60FF
:1016B800FFF7B4FA0546234B5B6A13F0020FC8D054
:1016C800FFF7ACFA401B0228F5D90320D5E0002526
:1016D800D4E71F4A136843F480731360FFF79EFA38
:1016E80006461B4B1B6813F4807FCCD1FFF796FA94
:1016F800801B6428F5D90320BFE0124A136A43F01F
:1017080001031362E3687BB3FFF788FA06460D4BC3
:101718001B6A13F0020F38D1FFF780FA801B41F2E1
:1017280088339842F3D90320A7E0052B12D0054B44
:101738001A6A22F001021A621A6A22F004021A6274
:10174800E0E700BF0010024000004242800442422D
:10175800007000404C4B1A6A42F004021A621A6A7E
:1017680042F001021A62CDE7FFF758FA0646464BE7
:101778001B6A13F0020F08D0FFF750FA801B41F2E2
:1017880088339842F3D9032077E0E5B9E369002B61
:1017980072D03D4A526802F00C02082A56D0022B39
:1017A80017D03A4B00221A60FFF738FA0446364B36
:1017B8001B6813F0007F47D0FFF730FA001B0228A0
:1017C800F5D9032059E0304AD36923F08053D36117
:1017D800DCE72E4B00221A60FFF720FA05462A4B59
:1017E8001B6813F0007F06D0FFF718FA401B022889
:1017F800F5D9032041E0236AB3F5803F1AD0224986
:101808004B6823F47413226A606A024313434B60E3
:101818001E4B01221A60FFF701FA04461A4B1B6897
:1018280013F0007F0ED1FFF7F9F9001B0228F5D954
:10183800032022E0144A536823F40033A1680B43C1
:101848005360DCE7002018E0002016E0012B16D0DA
:101858000D4B5B6803F48031226A914201D001206C
:101868000BE003F47013626A93420AD0012004E08B
:1018780001207047012000E0002002B070BD012067
:10188800FBE70020F9E700BF001002406000424279
:1018980010B487B0164C94E80F000DF1180C0CE941
:1018A8000F00238AADF80430124B5B6803F00C027A
:1018B800082A1AD1C3F38342624412F8102C13F495
:1018C800803F05D10C4800FB02F007B010BC704700
:1018D800084B5B68C3F34043634413F8143C074860
:1018E80000FB02F0B0FBF3F0EFE70448EDE700BFC0
:1018F800F84E00080010024000093D0000127A006E
:10190800002800F0A38070B50446524B1B6803F012
:1019180007038B420CD24F4A136823F007030B438B
:101928001360136803F007038B4201D0012070BDD8
:10193800236813F0020F17D013F0040F04D0464A9F
:10194800536843F4E0635360236813F0080F04D02E
:10195800414A536843F4605353603F4A536823F045
:10196800F003A068034353600D46236813F0010F8A
:1019780031D06368012B20D0022B25D0364A12685B
:1019880012F0020F64D034494A6822F0030213436C
:101998004B60FFF743F906462F4B5B6803F00C03D7
:1019A8006268B3EB820F16D0FFF738F9801B41F25B
:1019B80088339842F0D90320B9E7274A126812F40D
:1019C800003FE0D10120B2E7234A126812F0007FFD
:1019D800D9D10120ABE71F4B1B6803F00703AB42CB
:1019E8000CD91C4A136823F007032B4313601368B0
:1019F80003F00703AB4201D0012098E7236813F0F6
:101A0800040F06D0144A536823F4E063E1680B43DB
:101A18005360236813F0080F07D00F4A536823F464
:101A28006053216943EAC1035360FFF731FF0A4B52
:101A38005B68C3F30313094AD35CD840084B1860AA
:101A4800084B1868FFF7A8F8002070E701207047D6
:101A580001206CE70020024000100240204F0008DF
:101A68001400002004000020014B1868704700BFD4
:101A78001400002008B5FFF7F7FF044B5B68C3F3B9
:101A88000223034AD35CD84008BD00BF00100240BF
:101A9800304F000808B5FFF7E7FF044B5B68C3F356
:101AA800C223034AD35CD84008BD00BF00100240DF
:101AB800304F000870B582B00446036813F0010F78
:101AC80034D03E4BDB6913F0805F48D13B4BDA6979
:101AD80042F08052DA61DB6903F080530193019B85
:101AE8000125374B1B6813F4807F3AD0334B1B6AB0
:101AF80013F4407311D0626802F440729A420CD019
:101B08002E4A136A23F440702E4901260E600026DF
:101B18000E60106213F0010F37D1284A136A23F4BC
:101B2800407361680B431362002D3FD1236813F0A3
:101B3800020F06D0214A536823F44043A1680B439F
:101B48005360236813F0100F35D01C4A536823F4F0
:101B5800800361690B435360002002B070BD00250B
:101B6800BFE7174A136843F480731360FFF756F80A
:101B78000646134B1B6813F4807FB7D1FFF74EF866
:101B8800801B6428F5D90320E7E7FFF747F80646E6
:101B98000A4B1B6A13F0020FBFD1FFF73FF8801BF7
:101BA80041F288339842F3D90320D6E7D36923F06A
:101BB8008053D361BAE70020CFE700BF001002408E
:101BC800007000404004424230B587B005463F4CA3
:101BD80094E80F000DF1180C0CE90F00238AADF8FA
:101BE8000430681E0F2866D8DFE800F0395A6532DD
:101BF800656565366565656565656508344B5A686C
:101C08001B6813F0807F58D0C2F3834306A90B44A6
:101C180013F8100C12F4803F16D02D4B5B68C3F3F9
:101C280040430B4413F8142C2A4BB3FBF2F300FB8C
:101C380003F0274B5B6813F4800F0BD14000264B51
:101C4800A3FB0030400805E0244B03FB00F0F0E75D
:101C5800FFF71EFE07B030BDFFF71AFEFAE71C4B70
:101C68001B6A40F202321A40B2F5817F27D003F492
:101C78004073B3F5007F04D0B3F5407F09D000204E
:101C8800E8E7134A526A12F0020FF5D049F64040CD
:101C9800E0E70F4B1B6813F4003F13D10020D9E78E
:101CA800FFF7F8FE0A4B5B68C3F3813301335B002F
:101CB800B0FBF3F0CEE70020CCE70020CAE74FF4F2
:101CC8000040C7E74FF22440C4E700BF0C4F0008AC
:101CD8000010024000127A00ABAAAAAA00093D002F
:101CE80010B4036A046A24F001040462846924F0CD
:101CF800F00444EA021223F00A030B4382610362F0
:101D080010BC704710B4036A23F01003036284699F
:101D1800036A24F4704444EA023223F0A00343EA3D
:101D280001138261036210BC7047836823F070035B
:101D3800194341F0070181607047022380F83D3064
:101D48000268936803F00703062B03D0136843F077
:101D580001031360012380F83D30002070470223FF
:101D680080F83D300368196A41F21112114208D116
:101D7800196A40F24442114203D11A6822F0010262
:101D88001A60012380F83D30002070470368244A18
:101D9800904212D002F5006290420ED0B0F1804F0E
:101DA8000BD0A2F59832904207D002F5806290429B
:101DB80003D002F58062904203D123F070034A6891
:101DC8001343174A904212D002F5006290420ED097
:101DD800B0F1804F0BD0A2F59832904207D002F5AF
:101DE8008062904203D002F58062904203D123F4CE
:101DF8004073CA68134323F080034A69134303609E
:101E08008B68C3620B688362054B984203D003F565
:101E18000063984201D10B69036301234361704752
:101E2800002C0140A8B110B5044690F83D305BB1D4
:101E3800022384F83D30211D2068FFF7A7FF012306
:101E480084F83D30002010BD80F83C3000F05AFC8A
:101E5800EEE70120704710B4846824F47F4442EA16
:101E680003230B432343836010BC704790F83C3036
:101E7800012B66D010B50446012380F83C300223BC
:101E880080F83D300268936823F47F4323F077039A
:101E980093600B68402B4AD013D9602B3DD01ED9D4
:101EA800702B28D0B3F5005F30D1CB684A688968B9
:101EB8000068FFF7D0FF2268936843F4804393607B
:101EC80024E0102B06D004D9202B03D0302B01D0CE
:101ED8001CE0DBB919462068FFF727FF16E0502BF6
:101EE80014D1CA6849680068FFF7FAFE50212068D3
:101EF800FFF71BFF0AE0CB684A6889680068FFF7AC
:101F0800AAFF2268936843F077039360012384F85B
:101F18003D30002084F83C0010BDCA68496800685C
:101F2800FFF7F0FE60212068FFF7FFFEEEE7CA68C2
:101F380049680068FFF7D4FE40212068FFF7F5FEE6
:101F4800E4E70220704790F83C30012B1CD070B4B5
:101F5800012680F83C60022380F83D30026855680D
:101F6800936825F070050C682C4323F080054B68B6
:101F78002B4354600268936080F83D60002380F82A
:101F88003C30184670BC70470220704738B504468C
:101F98000268136923F44053C1680B4313618368D3
:101FA8000269134342691A430168CB6823F4B053AA
:101FB80023F00C031343CB600268536923F4407386
:101FC80081690B4353610268214B9A421FD0FFF786
:101FD80051FD00EB800000EB800063689B00B0FBC4
:101FE800F3F01C4DA5FB00325109642202FB1102DB
:101FF80013013233A5FB03235B0903F0F00202EB64
:10200800011203F00F03216813448B6038BDFFF7FA
:1020180041FD00EB800000EB800063689B00B0FB93
:10202800F3F00C4DA5FB00325109642202FB1102AA
:1020380013013233A5FB03235B0903F0F00202EB23
:10204800011203F00F03216813448B60DEE700BF21
:10205800003801401F85EB512DE9F04105460F4638
:1020680016469846069C2B681B6837EA03030CBF84
:1020780001230023B3421DD1B4F1FF3FF3D02CB1AB
:10208800FEF7CCFDA0EB0800A042ECD92A68D36883
:1020980023F4D073D3602A68536923F00103536192
:1020A800202385F8393085F83A30002385F8383010
:1020B800032000E00020BDE8F08158B310B50446C5
:1020C80090F839300BB3242384F839302268D36868
:1020D80023F40053D3602046FFF758FF22681369A2
:1020E80023F4904313612268536923F02A03536150
:1020F8002268D36843F40053D3600020E0632023B0
:1021080084F8393084F83A3010BD80F8383000F05F
:1021180029FBD8E7012070472DE9F04182B01E461F
:1021280090F83930DBB2202B55D104460D46904645
:10213800002955D0002A55D090F83830012B53D0BB
:10214800012380F838300023C363212380F8393015
:10215800FEF764FD0746A4F82480A4F8268010E062
:1021680000963B46002280212046FFF775FF002895
:102178003CD12B882268C3F3080353602369C3B991
:102188000235E38C9BB2B3B1E38C013B9BB2E38491
:10219800A368B3F5805FE3D000963B460022802118
:1021A8002046FFF759FF18BB2A7823685A60013583
:1021B800E7E70135E5E700963B4600224021204647
:1021C800FFF74AFF0346A8B9202284F839200022E5
:1021D80084F8382000E00223184602B0BDE8F081F8
:1021E8000123F9E70123F7E70223F5E70323F3E7E0
:1021F8000323F1E70323EFE700B585B0002301933C
:10220800029303931148124A0260836003730375B3
:102218004FF46022C261436001230361FEF794FE1C
:1022280068B900230193012302930723039301A9AB
:102238000648FEF711FD28B905B05DF804FB00F06B
:102248008DF9EEE700F08AF9F6E700BF20020020DA
:102258000024014000B587B0002302930393049340
:1022680005930268114B9A4202D007B05DF804FB4F
:1022780003F56C439A6942F400729A619A6902F410
:1022880000720092009A9A6942F004029A619B696E
:1022980003F004030193019B012302930323039397
:1022A80002A90348FEF7D6FFDFE700BF002401407C
:1022B80000080140F0B58BB00025069507950895F4
:1022C8000995344B9A6942F040029A619A6902F082
:1022D80040020192019A9A6942F010029A619A6941
:1022E80002F010020292029A9A6942F004029A617C
:1022F8009A6902F004020392039A9A6942F008026A
:102308009A619A6902F008020492049A9A6942F062
:1023180020029A619B6903F020030593059B1E4FD9
:1023280001224FF480413846FFF78EF84FF6FF76CA
:1023380006960324079406A91848FEF78BFF06960D
:10234800079406A91648FEF785FF49F6FE1306937B
:10235800079406A91348FEF77DFF4BF6FF73069313
:10236800079406A93846FEF775FF4FF48043069395
:102378000123079308950223099306A93846FEF717
:1023880069FF0696079406A90748FEF763FF0BB096
:10239800F0BD00BF00100240000C014000180140D1
:1023A80000100140000801400014014000B583B04E
:1023B80002A941F8040D0F2301220348FFF7ACFEE0
:1023C800019803B05DF804FB9002002030B597B087
:1023D80000240E940F94119412940794089409946D
:1023E8000A940B940194029403940494059406941B
:1023F80001220C924FF480330D931092022513950D
:1024080014934FF4E01315930CA8FFF739F80F2332
:102418000793089509944FF480630A930B9429460F
:1024280007A8FFF76DFA01954FF40043039301A83D
:10243800FFF740FB17B030BD38B5C0F57F40FA3024
:1024480084B2084D2846FFF778FC2A68546201E0F8
:10245800546AA4B24FF6F9739C42F9D90148FFF7C0
:102468007EFC38BD5002002080B5FEF7B9FBFFF7AF
:10247800ADFFFFF71FFFFFF7BFFE00F00BF900F0FD
:1024880057F901224FF480412F48FEF7DDFF2F480E
:10249800FEF70EFE2C4F00224FF480413846FEF71F
:1024A800D3FF2B4C2088FFF7C7FF284D2846FEF79F
:1024B800AFFCA088FFF7C0FF2846FEF7C9FB254EF2
:1024C80030602846FEF7D6FD01224FF48041384699
:1024D800FEF7BAFFA068FEF771FA80B2FFF7ACFF0B
:1024E8003068FDF7DFFF10A3D3E90023FEF754F8A7
:1024F8000FA3D3E90023FEF74FF80FA3D3E9002376
:10250800FEF774F90EA3D3E90023FDF78DFE02460A
:102518000B46114800F00AFE4FF47A70FEF784FB70
:10252800B8E700BFAFF30080C3F5285C8FC2C53F92
:102538000000000000C8A9400000000000FEAF40F5
:102548009A9999999999B93F000C01402002002065
:102558000800002004020020384F000870470000DF
:1025680082B00E4B9A6942F001029A619A6902F0B0
:1025780001020092009ADA6942F08052DA61DB695E
:1025880003F080530193019B054A536823F0E063ED
:1025980043F00073536002B0704700BF0010024060
:1025A800000001407047FEE7FEE7FEE7FEE77047E0
:1025B8007047704708B5FEF725FB08BD70B50D4696
:1025C8001646002404E0AFF300802870013401357A
:1025D800B442F8DB304670BD70B51646002405E0FD
:1025E8004D1C0878FFF7E2FE01342946B442F7DBB8
:1025F800304670BD08B503460B4A126842B10A4A14
:10260800106803446A46934206D8074A136008BD17
:10261800054A06491160F2E700F006F90C23036049
:102628004FF0FF30F3E700BF0C020020D802002073
:102638004FF0FF3070474FF400534B600020704755
:1026480001207047002070470F4B1A6842F00102C2
:102658001A6059680D4A0A405A601A6822F0847252
:1026680022F480321A601A6822F480221A605A68AA
:1026780022F4FE025A604FF41F029A60044B4FF096
:1026880000629A60704700BF001002400000FFF827
:1026980000ED00E000B587B0002302930393049394
:1026A8000593009301931548154A0260472242603A
:1026B80083600122C260036180238361FFF7B2FB5C
:1026C80098B906A94FF4805341F8103D0B48FFF71D
:1026D800CDFB68B900230093019369460748FFF7CB
:1026E80032FC40B907B05DF804FBFFF737FFE8E7B5
:1026F800FFF734FFEEE7FFF731FFF3E75002002062
:10270800000800400268094B9A4200D0704782B026
:1027180003F50233DA6942F00402DA61DB6903F097
:1027280004030193019B02B0704700BF00080040FA
:1027380008B50A480A4B03604FF4E13343600023AD
:102748008360C36003610C2242618361C361FFF748
:10275800B4FC00B908BDFFF701FFFBE790020020B9
:102768000038014010B586B0002302930393049308
:1027780005930268174B9A4201D006B010BD03F5C5
:1027880058439A6942F480429A619A6902F48042F5
:102798000092009A9A6942F004029A619B6903F0D8
:1027A80004030193019B4FF40073029302230393E4
:1027B80003230593084C02A92046FEF74BFD4FF46E
:1027C8008063029300230393049302A92046FEF733
:1027D80041FDD2E70038014000080140002103E034
:1027E8000B4B5B58435004310A480B4B42189A4232
:1027F800F6D30A4A02E0002342F8043B084B9A4207
:10280800F9D3FFF721FF00F015F8FFF72DFE704709
:102818001852000800000020E8010020E80100200C
:10282800D4020020FEE70000014B1868704700BF83
:102838001800002070B500250C4E0D4CA41BA410E8
:10284800A54209D102F046FB00250A4E0A4CA41BFA
:10285800A410A54205D170BD56F82530984701351A
:10286800EEE756F8253098470135F2E71052000890
:10287800105200081052000814520008034602447F
:10288800934200D1704703F8011BF9E7002B2DE9AB
:10289800F0471E46BBBF03F100431E4600232D230D
:1028A80088B0149FDDE9121A27F02007462F144636
:1028B800109D0B7004D0452F00D10135022300E094
:1028C800032307AA049206AACDE902A2CDE900359E
:1028D8002246334600F0D0FC472F804602D1119B98
:1028E800DB0726D5462F08EB050911D198F80030EB
:1028F800302B0AD10022002320463146FEF7DCF8AF
:1029080018B9C5F10105CAF80050DAF80030994441
:102918000022002320463146FEF7CEF838B930228F
:10292800079B4B4505D2591C07911A70F8E7CDF85B
:102938001C904046079B159AA3EB0803136008B048
:10294800BDE8F087F7B50029B4BF2D232B23044633
:10295800B8BF4942092904F8022B437021DD0DF163
:1029680007031F460A2691FBF6F506FB1511092DEC
:1029780001F1300103F8011C03F1FF32294609DC9B
:102988003031023B02F8011CBB42224604D3101A24
:1029980003B0F0BD1346E6E713F8012B04F8012B4A
:1029A800F2E7302319448370021DC170EFE700007D
:1029B8002DE9F04F91B00C461A9F93461E460546E6
:1029C80001F0D8FA036818460993FEF717F80023B0
:1029D8000E933B680A90073323F0070303F10802BC
:1029E80094F81880D4F800A03A60D3E90023C4E929
:1029F8001223D4E9127929F000430B934FF0FF32E8
:102A0800A64B38460B99FEF789F868BB4FF0FF32A2
:102A1800A24B38460B99FEF763F828BB0022002327
:102A280038464946FEF752F810B12D2384F8433052
:102A38009B4F9C4BB8F1470F98BF1F4603234FF09D
:102A4800000923612AF00403236000965B460FAA5D
:102A58002146284600F0E2F9013040F090804FF01E
:102A6800FF3011B0BDE8F08F3A464B46384649462C
:102A7800FEF754F810B18C4F8C4BDBE763684AF4CF
:102A88008062591C0DA80EA940D1062363604FF03F
:102A9800000C0DF13303CDE9012363682260CDE911
:102AA800030800933A464B46CDE9051C2846FFF734
:102AB800EDFE08F0DF03472B074609D10D9BD81C14
:102AC80002DB6268934247DDA8F102085FFA88F8E2
:102AD800B8F1650F0D9924D80139424604F1500028
:102AE8000D91FFF72FFF0E9A81461318012A2361D3
:102AF80002DC2268D10701D5013323619DF8333008
:102B0800002BA2D02D2384F843309EE7B8F1670F3D
:102B180000F06E81B8F1470FB9D1002BB7D101236E
:102B2800B4E7B8F1660F19D1002963680CDD21619B
:102B380013B92268D20702D501330B4423610D9BD8
:102B48004FF00009A365D9E713B92268D00701D56A
:102B58000233F3E70123F1E74FF06708DDE90D32AF
:102B6800934205DB22682361D107E8D50133E5E705
:102B7800002BCCBF0123C3F102031344DEE7236813
:102B88005A0507D423693A4659462846B0470130C2
:102B980029D164E7B8F1650F40F2D780D4E9120172
:102BA80000220023FDF788FF88B30123404A5946D5
:102BB8002846B04701303FF452AFDDE90D239A4271
:102BC80002DB2368D8070ED5DDE9092359462846D4
:102BD800B04701303FF443AF002704F11A080E9BB9
:102BE800013BBB4209DC23689F0700F1FD80E068D8
:102BF8000F9B9842B8BF184633E70123424659460F
:102C08002846B04701303FF42AAF0137E7E70D9B6C
:102C1800002B2BDC0123264A59462846B0470130B1
:102C28003FF41DAF0D9B23B90E9B13B92368D90739
:102C3800D9D5DDE9092359462846B04701303FF484
:102C48000EAF4FF0000804F11A090D9B5B42434593
:102C580001DC0E9B97E701234A4659462846B047B0
:102C680001303FF4FCAE08F10108EEE70E9AA36DBF
:102C78009A42A8BF1A46002A904607DD13465946CD
:102C88003A462846B04701303FF4E9AE04F11A034A
:102C98004FF0000A28EAE8780B9315E0FFFFEF7F72
:102CA800544F0008504F00085C4F0008584F000868
:102CB800604F000801230B9A59462846B047013057
:102CC8003FF4CDAE0AF1010AD4F85890A9EB0803F5
:102CD8005345EFDCDDE90D239A424F4414DB2368AA
:102CE800DA0711D40E9B0D99A3EB0902A3EB010996
:102CF8009145A8BF9146B9F1000F0DDC002729EADC
:102D0800E97904F11A0818E0DDE90923594628464B
:102D1800B0470130E6D1A2E64B463A465946284626
:102D2800B0470130EAD19AE601234246594628467F
:102D3800B04701303FF493AE0137DDE90D239B1A0C
:102D4800A3EB0903BB42EFDC4DE70E9A012A01DC35
:102D5800DB0738D501233A4659462846B0470130A3
:102D68003FF47DAEDDE9092359462846B0470130D6
:102D780007F101073FF473AED4E912010E9B00225C
:102D880003F1FF380023FDF797FEC0B943463A46E2
:102D980059462846B04701300DD160E60123424626
:102DA80059462846B04701303FF459AE01370E9BCB
:102DB800013BBB42F2DC4B4604F15002E4E600273B
:102DC80004F11A08F3E70123E1E7012342465946D3
:102DD8002846B04701303FF442AE0137E3680F9A06
:102DE8009B1ABB42F1DC02E7002704F11908F5E75A
:102DF800002B3FF494AE4FF0000CCDE9051C0DF10B
:102E080033012260CDE90308CDE9012100933A4658
:102E18004B462846FFF73AFD07464FE62DE9F047AF
:102E280091461F468A680B6906469342B8BF134607
:102E3800C9F8003091F843200C46DDF8208012B123
:102E48000133C9F800302368990642BFD9F8003029
:102E58000233C9F80030256815F0060507D104F1DA
:102E6800190AE368D9F800209B1AAB4229DC94F8C8
:102E780043302268003318BF012392062ED404F190
:102E8800430239463046C047013021D02368E568FF
:102E980003F00603042B18BF0025D9F800204FF0D3
:102EA800000908BFAD1AA368226908BF25EAE575BD
:102EB8009342C4BF9B1AED181A344D451AD100200D
:102EC80008E00123524639463046C047013003D155
:102ED8004FF0FF30BDE8F0870135C2E73020E11838
:102EE80081F843005A1C94F845102244023382F8B2
:102EF8004310C4E70123224639463046C047013013
:102F0800E6D009F10109D8E72DE9F04301F1430CB6
:102F18000C46097E85B06E291746064698460C9AD7
:102F280000F0B38022D8632936D00AD8002900F0EF
:102F3800B980582900F0838004F1420584F84210D2
:102F480032E0642901D06929F6D1206813680506A2
:102F580003F104012AD51B681160002B03DA2D2226
:102F68005B4284F843206F480A2239E0732900F055
:102F78009D8008D86F2920D07029DDD1236843F0BF
:102F88002003236003E0752917D07829D4D178234A
:102F9800654884F8453055E0136804F14205191D69
:102FA8001B68116084F8423001238CE01B6810F024
:102FB800400F116018BF1BB2CFE713682568181DB2
:102FC8001060280601D51B6802E06806FBD51B883F
:102FD8006F2914BF0A2208225248002184F843109E
:102FE8006568002DA560C0F29580216821F0040174
:102FF8002160002B3DD1002D40F08E806546082AC7
:103008000BD12368DB0708D5236962689A42DEBFC3
:10301800302305F8013C05F1FF35ACEB05032361CE
:10302800CDF800803B4603AA21463046FFF7F6FE5E
:1030380001304DD14FF0FF3005B0BDE8F08339487D
:1030480084F84510136821681D1D1B6815600A0661
:103058000BD5CA0744BF41F0200121601BB9226883
:1030680022F0200222601022B7E74D0648BF9BB22B
:10307800EFE76546B3FBF2F102FB1133C35C05F8D9
:10308800013D0B460029F5D1B9E713682568181DDD
:103098006169106028061B6801D5196002E06A069C
:1030A800FBD51980002365462361B9E71368191D0C
:1030B80011601D6862680021284600F071FF08B1A0
:1030C800401B606063682361002384F84330A7E7EE
:1030D80023692A4639463046C0470130AAD02368BA
:1030E8009B0713D4E068039B9842B8BF1846A3E730
:1030F80001234A4639463046C04701309AD0013547
:10310800E368039A9B1AAB42F2DCEBE7002504F173
:103118001909F5E7002BACD1037804F1420584F8CE
:1031280042306CE7624F0008734F00080FB40A4B37
:1031380013B51C6824B1A36913B9204600F090FEAA
:1031480005AB049AA1682046019301F0FBFA02B08E
:10315800BDE8104004B07047180000202DE9F74F73
:1031680003690C698046A342C0F28480013C01F1E6
:10317800140700F1140657F8245056F824000135B6
:10318800B0FBF5F54FEA840C06EB0C0307EB0C09D2
:1031980001939DB34FF0000A3846B646D34650F81F
:1031A800042B93B205FB03A3120C4FEA134A05FB49
:1031B80002A29BB2ABEB0303DEF800B04FEA124A5F
:1031C8001FFA8BFB5B441FFA82FBDEF80020814567
:1031D800CBEB124202EB23429BB243EA02434FEA93
:1031E800224B4EF8043BDAD256F80C3033B9019B27
:1031F800043B9E421A4631D3C8F81040404601F0BD
:10320800FDF8002826DB30464FF0000C013557F852
:10321800041BD0F800E08BB2ACEB03031FFA8EF26C
:1032280013440A0CC2EB1E4202EB23429BB243EA50
:103238000243B9454FEA224C40F8043BE7D256F81E
:10324800242006EB84032AB9043B9E421A460BD37A
:10325800C8F81040284603B0BDE8F08F1268043B58
:10326800002AC9D1013CC4E71268043B002AEFD107
:10327800013CEAE70020EEE72DE9F04F16461F462D
:10328800456A95B00446DDF88480CDE902673DB90A
:10329800102000F07DFE6062C0E901550560C56040
:1032A800636A196851B15A68012393404A608B6078
:1032B800204600F0C2FE0022636A1A603B1EAFBFC0
:1032C8000023012223F000430393ACBFC8F8003069
:1032D800C8F80020AE4BDDF80C8033EA08031BD198
:1032E80042F20F73209A1360029B23B9C8F31300AC
:1032F800002800F04585229B53B9A64B21E0A64B38
:1033080006930833229A1360069815B0BDE8F08F2B
:10331800A04B06930333F5E7DDE90267002200239B
:1033280030463946FDF7C8FB824660B10123209A32
:103338001360229B002B00F02085984B229A136083
:10334800013B0693E0E712AB019313AB00933246BF
:103358003B46204601F0CAF8C8F30A558346002DBB
:103368007DD0B046C7F3130343F07F5949F44019A1
:10337800A5F2FF35CDF840A00022894B40464946CA
:10338800FCF752FF7CA3D3E90023FDF705F97CA3E2
:10339800D3E90023FCF74AFF064628460F46FDF707
:1033A80091F879A3D3E90023FDF7F6F802460B4616
:1033B80030463946FCF73AFF06460F46FDF7C4FB90
:1033C80000228246002330463946FDF77FFB48B18C
:1033D8005046FDF777F832463B46FDF76DFB08B9D6
:1033E8000AF1FF3ABAF1160F5AD8DDE902236D49FE
:1033F80001EBCA01D1E90001FDF786FB002851D095
:1034080000230AF1FF3A0D93129B5D1B6B1E079375
:1034180043BF0023C5F1010907934FF00009BAF132
:10342800000F41DB079BCDF830A0534407930023DE
:1034380008931E9B092B00F28F80052BC4BF043B09
:103448001E931E9BC8BF0025A3F10203D8BF012508
:10345800032B00F28D80DFE803F07B7D2F6FDDE921
:1034680012531D4405F23240202813DDC0F14000FC
:10347800029B08FA00F805F2124023FA00F048EA25
:103488000000FDF70FF801238046A1F1F879013D0E
:10349800109371E7029BC0F1200003FA00F0F0E7F7
:1034A8000123B0E70D90AFE7CAF1000308930023AA
:1034B800A9EB0A090C93BCE7012309931F9B002B76
:1034C80074DD984604930022666A7260042202F151
:1034D8001400984271686ED9204600F07AFD636A3C
:1034E80030601B68B8F10E0F069300F2ED80002DD6
:1034F80000F0EA80DDE90223BAF1000FCDE90E23DE
:1035080077DD284A0AF00F034FEA2A1602EBC303B5
:10351800F006D3E90023CDE90A2368D5DDE90E01D9
:10352800214B0325D3E90823FDF760F9CDE9020112
:1035380006F00F061C4F4FE0012309931F9B5344CD
:1035480003F1010804934346012BB8BF0123BAE7EE
:103558000023B2E70023F0E70125002309951E9315
:103568004FF0FF3300220493984612231F92AAE7D4
:1035780001230993F4E700BF61436F63A787D23F34
:10358800B3C8608B288AC63FFB799F501344D33F4A
:103598000000F07F8D4F0008844F0008614F00083D
:1035A8000000F83F20500008F84F0008012304935A
:1035B80098461A46DAE701317160520087E7F10749
:1035C80008D5DDE90A01D7E90023FCF7E5FFCDE9D5
:1035D8000A01013576100837002EF0D1DDE90A23FB
:1035E800DDE90201FDF702F9CDE902011BE0022540
:1035F800A0E700F0A480DDE90E01CAF10006A04BA7
:1036080006F00F0203EBC203D3E90023FCF7C4FF63
:1036180002250023CDE902019A4F3611002E40F011
:103628008380002BE0D10D9B002B00F08A80DDE920
:103638000223CDE90A23DDE90A010022924BFDF7B6
:1036480045FA00287DD0B8F1000F7AD0049B002BF2
:1036580036DDDDE90A0100228C4BFCF79DFFCDE940
:103668000201049E0AF1FF3701352846FCF72AFFBC
:10367800DDE90223FCF790FF0022854BFCF7D6FD1D
:10368800A1F15075CDE90A010B95002E5CD1DDE959
:10369800020100227F4BFCF7C7FD0A9A2B46CDE9B1
:1036A8000201FDF731FA002840F08182DDE90201CC
:1036B8000A9A05F10043FDF709FA002840F07582DF
:1036C800DDE90E23CDE90223139B002BC0F24B81C9
:1036D800BAF10E0F00F34781694B03EBCA03D3E934
:1036E8000023CDE904231F9B002B80F2D780B8F17B
:1036F800000F00F3D38040F05782DDE90401002277
:10370800644BFCF749FFDDE90223FDF7F3F9464670
:103718004746002840F02D82069B069A5D1C3123FF
:103728000AF1010A137028E2F20705D5D7E9002348
:10373800FCF732FF01230135761008376EE70225C2
:1037480071E75746464690E74D4B03EBC60353E9EE
:103758000201099B002B48D002460B4600204E4927
:10376800FDF744F8DDE90A23FCF75EFDCDE90A011F
:10377800069DDDE90201FDF7E7F91190FCF7A2FECD
:1037880002460B46DDE90201FCF74EFD119BCDE92F
:103798000201303305F8013BDDE90A23FDF796F90C
:1037A800002863D1DDE9022300203749FCF73CFDFE
:1037B800DDE90A23FDF78AF9002840F0B580069B69
:1037C800EB1A9E427FF77CAFDDE90A0100222F4BFE
:1037D800FCF7E2FE0022CDE90A01DDE902012B4BEC
:1037E800FCF7DAFECDE90201C3E7DDE90A23FCF7BD
:1037F800D3FE069BCDE90A019D191E46DDE90201AB
:10380800FDF7A2F91190FCF75DFE02460B46DDE9D3
:103818000201FCF709FD119BCDE90201303306F8DE
:10382800013BAE424FF0000224D1DDE90A011A4BF8
:10383800FCF7FCFC02460B46DDE90201FDF764F9E2
:10384800002871D1DDE90A2300201349FCF7ECFCBC
:1038580002460B46DDE90201FDF738F900283FF47E
:103868002FAF15F8013C6A1E302B01D0BA464AE04A
:103878001546F6E7054BFCF78FFECDE90201BDE7DB
:1038880020500008F84F00080000F03F00002440D6
:1038980000001C40000014400000E03F069DDDE9E8
:1038A8000267DDE9042330463946FCF79FFFFDF740
:1038B8004BF98146FCF706FEDDE90423FCF76CFEB4
:1038C80002460B4630463946FCF7AEFC09F1300695
:1038D80005F8016B069E0246AE1BB0450B4635D176
:1038E800FCF7A4FCDDE9042306460F46FDF70CF9B6
:1038F800C8B9DDE9042330463946FDF7DDF810B1D3
:1039080019F0010F0FD15946204600F096FB00230D
:10391800209A2B700AF101031360229B002B3FF4BD
:10392800F3AC1D60F0E4574615F8012C6B1E392ADC
:1039380006D1069A9A4207D13023137013460137ED
:103948001A7801321A7091E71D46EDE70022994B6B
:10395800FCF722FE0022002306460F46FDF7ACF8CE
:1039680000289ED0CFE7099A002A00F088801E9A86
:10397800012A6DDC109A002A66D003F233434D46C3
:10398800089E079A01211A4420469944079200F09C
:10399800F4FB0746002D0BDD079B002B08DDAB422F
:1039A800A8BF2B46079AA9EB0309ED1AD31A079368
:1039B800089BEBB1099B002B65D08EB13946324686
:1039C800204600F079FC5A4601460746204600F09A
:1039D800DDFB59460A90204600F02FFB0A9B9B46C8
:1039E800089B9A1B04D05946204600F065FC834684
:1039F8000121204600F0C1FB0C9B0646002B00F07D
:103A0800C6811A460146204600F056FC1E9B064613
:103A1800012B3EDC029B002B37D1039BC3F313031E
:103A2800002B34D1039B23F000431B0D1B052BB146
:103A3800079B09F1010901330793012308930C9BA4
:103A4800002B28D101202EE0129BC3F1360396E704
:103A5800089B08F1FF36B342B7BF089B9E1BF21ABA
:103A68000C9BBFBF08969B180C930026B8F1000F5B
:103A7800B9BFA9EB080500234D46434681E7089ED8
:103A88004D46099F86E7089AADE70023D6E7029BD3
:103A9800D4E700230893336906EB8303186900F021
:103AA8001EFBC0F12000079B184410F01F0047D0F0
:103AB800C0F12003042B3BDD079BC0F11C008144AF
:103AC800054403440793B9F1000F05DD59464A46FA
:103AD800204600F03FFC8346079B002B05DD31465E
:103AE8001A46204600F036FC06460D9B53B3314675
:103AF800584600F083FC002824DA002359460A229D
:103B0800204600F0B1FA099B0AF1FF3A8346002BE0
:103B180000F04481002339460A22204600F0A4FA26
:103B2800049B0746002B4DDC1E9B022B4ADD11E04F
:103B3800C9D0079A1C331A4499441D441346C1E757
:103B48000346F6E7B8F1000F36DC1E9B022B33DD87
:103B5800CDF81080049B63B931460522204600F059
:103B680083FA01460646584600F048FC00283FF70D
:103B7800D3AD1F9B069D6FEA030A4FF0000931463B
:103B8800204600F05AFA002F3FF4BDAEB9F1000FFD
:103B980005D0B94503D04946204600F04EFA3946CB
:103BA800204600F04AFAAEE600263746E1E7BA4674
:103BB8003746B1E500002440099BCDF81080002B62
:103BC80000F0F380002D05DD39462A46204600F036
:103BD800C1FB0746089B002B4CD07968204600F0B3
:103BE800F8F905463A6907F10C01023292000C30E7
:103BF80000F0E4F901222946204600F0ABFBB94663
:103C08000746069B0793029B03F00103089331467E
:103C18005846FFF7A3FA4946054600F130085846CA
:103C280000F0ECFB3A4602903146204600F000FCDA
:103C3800C368024603BB01460990584600F0DEFB04
:103C48000346099A11462046099300F0F6F9099BA4
:103C5800A3B91E9A92B9089A82B9B8F1390F29D036
:103C6800029B002B01DD05F13108079B5D1C83F8E1
:103C7800008084E73846C2E70123E3E7029A002A76
:103C880004DB23D11E9A0ABB089AFAB9002BECDD93
:103C980059460122204600F05DFB3146834600F07C
:103CA800ADFB002803DCE0D118F0010FDDD0B8F13E
:103CB800390FD8D1079B079A5D1C3923137015F863
:103CC800013C6A1E392B4DD0013352E0079A002B74
:103CD80002F1010506DDB8F1390FEBD008F1010852
:103CE800079BC4E7069B049AEB1A934205F8018CDC
:103CF80021D0594600230A22204600F0B5F9B945DB
:103D080083464FF000034FF00A024946204605D18A
:103D180000F0AAF981460746079578E700F0A4F96C
:103D28003946814600230A22204600F09DF90746BD
:103D3800F2E74FF0000959460122204600F00AFB3D
:103D48003146834600F05AFB0028B8DC02D118F04F
:103D5800010FB4D115F8013C6A1E302B7FF40FAF68
:103D68001546F7E7069B934205D13123069A0AF1D7
:103D7800010A137003E71546A1E7174BFFF7E1BAED
:103D8800229B002B7FF4BBAA144BFFF7DABA1E9BC9
:103D9800012B7FF73FAE0C9B089353E6049B002B47
:103DA80003DC1E9B022B3FF7D5AE069D31465846D5
:103DB800FFF7D4F9069B00F1300805F8018B049A47
:103DC800EB1A9A42B5DD594600230A22204600F034
:103DD8004BF98346EAE700BF604F0008844F0008AC
:103DE800002310B50446C0E900338360818143662F
:103DF800C281C0E904338361194608225C30FEF7AA
:103E08003DFD054B24626362044BA362044BE362ED
:103E1800044B236310BD00BF99490008BB49000843
:103E2800F3490008174A0008014900F085B800BFA7
:103E3800F14C000870B568254A1E55430E4605F139
:103E4800740100F0FDFB044640B10021C0E90016F2
:103E58000C30A06005F16802FEF710FD204670BD29
:103E6800836910B5044633BBC0E912330365124BAE
:103E7800124A1B688262984204BF0123836100F0E2
:103E88001FF86060204600F01BF8A060204600F094
:103E980017F80022E06004216068FFF7A1FF012203
:103EA8000921A068FFF79CFF02221221E068FFF7B2
:103EB80097FF0123A36110BD4C4F0008313E000855
:103EC800F8B51B4B07461E68B36913B93046FFF7B0
:103ED800C7FF4836D6E90134013B03D5336833B10F
:103EE8003668F7E7B4F90C506DB16834F4E704218B
:103EF8003846FFF79FFF30600028F1D10C230446B5
:103F08003B602046F8BD0B4B6566C4E90055A560CB
:103F1800C4E90335C4E905550822294604F15C00C3
:103F2800FEF7ACFCC4E90D55C4E91255E9E700BF3A
:103F38004C4F00080100FFFF2DE9F84380468946F1
:103F4800002600F1480414B93046BDE8F883D4E9E6
:103F58000175013F01D52468F5E7AB89012B07D925
:103F6800B5F90E30013303D029464046C847064309
:103F78006835EEE7044B1B68186A044B002808BF35
:103F88001846F030704700BF180000207C00002061
:103F9800024B0146186800F053BB00BF1800002010
:103FA80010B5C9B202449042034601D1002303E090
:103FB8001C7801308C42F6D1184610BD10B5431E4E
:103FC8000A44914200D110BD11F8014B03F8014F8A
:103FD800F7E770B5456A04460E463DB91020FFF76D
:103FE800D7FF6062C0E901550560C560656AEB6886
:103FF80083B1636ADB6853F82600B8B9012101FA76
:1040080006F56A1D9200204600F0BFFA60B1C0E9CB
:1040180001650EE021220421204600F0B6FA636A09
:10402800E860DB68002BE4D1002070BD026843F82B
:1040380026200023C0E90333F7E770B5446A064633
:104048000D463CB91020FFF7A3FF7062C0E9014498
:104058000460C4603DB1736A6A68DB6853F8221073
:10406800296043F8225070BD2DE9F0411F460646ED
:104078000C4600230D6901F1140CDCF80000013333
:1040880081B202FB0171000C0F0C02FB007089B2B7
:1040980001EB00419D424FEA10474CF8041BECDC51
:1040A800D7B1A368AB4212DC616830460131FFF733
:1040B80090FF8046226904F10C01023292000C3014
:1040C800FFF77CFF21463046FFF7B7FF444604EB75
:1040D800850301355F6125612046BDE8F081020C4A
:1040E80012040346B2B90304102013F07F4F04BF33
:1040F8001B02083013F0704F04BF1B01043013F08B
:10410800404F04BF9B000230002B06DB5B0003D549
:10411800013070470020E8E7202070470368014617
:1041280013F007020BD0DA0723D4980749BF5B08BE
:104138009B0801200B605CBF0B600220704798B29F
:10414800A8B910201B0C13F0FF0F04BF1B0A08307E
:104158001A0704BF1B0904309A0704BF9B080230E2
:10416800DA0702D45B0806D001300B6070471046AE
:10417800E9E7002070472020704710B50C46012160
:10418800FFF727FF01224461026110BD2DE9F74FB7
:1041980014460A69236988469A42BEBF0B46A04660
:1041A8001C46D8F81070D4F81090D8F80830D8F811
:1041B800041007EB0906B342B8BF0131FFF709FF46
:1041C80000F114052B46002205EB860E734516D325
:1041D80004F1140208F1140102EB890301EB8707CB
:1041E8000093009B019293420CD8002E03DD5EF8E9
:1041F800043D002B5DD0066103B0BDE8F08F43F8A5
:10420800042BE3E7B2F800B0BBF1000F23D08946D6
:10421800AC464FF0000859F8044BDCF800A0A3B2F4
:104228001FFA8AFA0BFB03A34FEA144ADCF8004092
:1042380043444FEA14480BFB0A84E24604EB134458
:104248009BB243EA04434F454FEA14484AF8043BFB
:104258002BD8CCF80480019B0432B3F802A0BAF141
:10426800000F20D08946A8464FF0000B2B68B9F8FC
:1042780000C0B8F802409BB20AFB0C44C4465C4438
:1042880043EA04434CF8043B59F8043BB8F804B03B
:104298001B0C0AFB03B34F4503EB14434FEA134BC4
:1042A80005D8C8F8043004359BE7D446B3E7E046A0
:1042B800DDE7013E99E700002DE9F843154612F0C5
:1042C800030206460F4607D0214C013A002354F852
:1042D8002220FFF7C9FE0746AD1035D0746A3CB9F5
:1042E8001020FFF755FE7062C0E901440460C46005
:1042F800D6F82480D8F808404CB940F271213046ED
:10430800FFF73BFF00230446C8F8080003604FF09E
:104318000008EB070AD5394622463046FFF736FF34
:10432800814639463046FFF788FE4F466D100BD060
:10433800206838B9224621463046FFF727FF20601B
:10434800C0F800800446E4E73846BDE8F88300BFBB
:10435800E85000082DE9F0470C4607461646236941
:104368004FEA621A0AEB03094968A36809F10105D3
:10437800AB4232DB3846FFF72CFE002380461A4654
:1043880000F1140153452BDB20692AEAEA7A04F18B
:10439800140316F01F0201EB8A0103EB800C25D0F1
:1043A8000020C2F1200E8A461E68964030434AF823
:1043B800040B53F8040B9C4520FA0EF014D84860FF
:1043C80008B109F10205013D3846C8F810502146E8
:1043D800FFF733FE4046BDE8F08701315B00C7E7D1
:1043E80041F823200133CDE75146DCE7043953F87F
:1043F800042B9C4541F8042FF9D8E4E703690A69BE
:1044080030B59B1A0CD19200143014318418114421
:1044180054F8045D51F8042D954203D005D30123C7
:10442800184630BDA042F3D3FAE74FF0FF33F7E761
:104438002DE9F0470D460746114628461446FFF772
:10444800DDFF061E08D131463846FFF7C2FD0123BD
:10445800C0E90436BDE8F087A4BF23462C46384699
:104468006168A6BF1D4600260126FFF7B2FD4FF082
:10447800000EC6602B69266904F1140205F11409BF
:1044880002EB860709EB830800F1140152F804AB2C
:1044980059F8045B1FFA8AF37344ACB21B1B2C0C4B
:1044A800C4EB1A4404EB23449BB24FEA244EC8459C
:1044B80043EA0444944641F8044BE7D8BC4504D386
:1044C80051F8043D83B10661C4E75CF8044BA2B21D
:1044D8007244131403EB144392B242EA03424FEAC4
:1044E800234E41F8042BE9E7013EE9E72DE9F341C2
:1044F8001C46DDE9086501219046FFF76AFDC4F313
:104508001302C4F30A54074634BB0192B8F10002FF
:1045180027D002A840F8082DFFF700FE0099F0B157
:10452800019AC0F1200302FA03F30B43C2407B61F6
:104538000192019B002B14BF02210121BB6139614B
:10454800C4B1A4F2334404443460C0F13500286097
:10455800384602B0BDE8F08142F48012D5E77961AF
:10456800E7E701A8FFF7DAFD0121019B39617B61CB
:104578002030E5E7A0F2324007EB8103306018698C
:10458800FFF7ADFDC0EB4110E1E738B502FB01F4E0
:10459800214600F055F8054618B122460021FEF7DD
:1045A8006DF9284638BD000038B50546002943D0C6
:1045B80051F8043C0C1F002BB8BFE41800F046FC6F
:1045C8001E4A1368104633B9636014602846BDE874
:1045D800384000F03CBCA3420BD9216862189342D2
:1045E80001BF1A685B685218226063600460EDE7D7
:1045F80013465A680AB1A242FAD919685818A04253
:104608000BD120680144581882421960DED1106825
:104618005268014419605A60D8E702D90C232B600C
:10462800D4E7206821188A4201BF11685268091826
:10463800216062605C60C9E738BD00BF14020020D9
:1046480070B5CD1C25F0030508350C2D38BF0C2599
:10465800002D064601DBA94203D90C233360002054
:1046680070BD00F0F3FB214A1468214691B9204C33
:1046780023681BB9304600F07BF920602946304694
:1046880000F076F9431C24D10C233046336000F047
:10469800DEFBE4E70B685B1B18D40B2B0FD90B6010
:1046A800CC18CD50304600F0D2FB04F10B00231D8E
:1046B80020F00700C31AD3D05A42E250D0E74B6823
:1046C8008C4216BF636013600C46EBE70C464968E2
:1046D800CCE7C41C24F00304A04205D0211A3046BC
:1046E80000F046F90130CFD02560DBE71402002046
:1046F80018020020936810B4013B002B936007DA7E
:104708009469A34201DB0A2902D110BC00F084B9E4
:104718001368581C10601970084610BC7047F8B52B
:1047280006460F461446D518AC4201D1002007E0D2
:104738003A4614F8011B3046FFF7DCFF431CF3D15F
:10474800F8BD00002DE9F04F0C469DB017461D46F8
:10475800064618B183690BB9FFF782FB7C4B9C4274
:1047680058D17468A38918075ED52369002B5BD0DC
:104778000023099320238DF8293030234FF0010BB3
:104788008DF82A300395B846454615F8013B0BB11C
:10479800252B54D1B8EB070A0BD053463A4621468D
:1047A8003046FFF7BCFF013000F0C280099B53443C
:1047B800099398F80030002B00F0BA8000234FF0DE
:1047C800FF32CDE90523049307938DF853301A93EC
:1047D800A846052218F8011B5E48FFF7E1FB049B79
:1047E80078BBD90644BF20228DF853201A0744BF4E
:1047F8002B228DF853202A782A2A2AD0A84600206E
:104808000A25079A414611F8013B303B092B69D923
:1048180060B324E0504B9C4201D1B468A2E74F4BEF
:104828009C4208BFF4689DE72146304600F058F9DD
:1048380000289DD04FF0FF301DB0BDE8F08FA8468E
:10484800A2E7444A4546801A0BFA00F01843049040
:10485800BEE7039A111D12680391002A01DB079233
:1048680004E0524243F002030792049398F80030A0
:104878002E2B0ED198F801302A2B38D1039B08F142
:1048880002081A1D1B680392002BB8BF4FF0FF33B4
:104898000593334D032298F800102846FFF780FB54
:1048A80040B14023401B03FA00F0049B08F10108C3
:1048B8000343049398F8001006222A4808F10107D8
:1048C8008DF82810FFF76CFB002837D0264B1BBB50
:1048D800039B073323F0070308330393099B4B44D7
:1048E800099350E705FB0232012088468AE7002336
:1048F8000A25194608F101080593404610F8012BCE
:10490800303A092A03D9002BC3D00591C1E705FB2A
:10491800012101238046F0E703AB00932246134BA5
:1049280004A93046FEF744F8B0F1FF3F8146D5D1DF
:10493800A3895B063FF57EAF09987DE703AB00933B
:1049480022460A4B04A93046FEF7DEFAECE700BF20
:10495800B44F0008F4500008D44F0008944F0008E2
:10496800FA500008FE500008B92900082747000837
:1049780038B50023054C054608462360FDF73AFE86
:10498800431C02D1236803B12B6038BDD00200203C
:1049980010B50C46B1F90E1000F05AFA0028ABBF5A
:1049A800636DA3891B1823F48053ACBF6365A3818F
:1049B80010BD2DE9F0411F468B890546DB050C46E5
:1049C800164605D502230022B1F90E1000F0B6F9FB
:1049D800A389324623F48053A381B4F90E103B46D1
:1049E8002846BDE8F04100F069B810B50C46B1F9A9
:1049F8000E1000F0A3F9431CA38915BF606523F4CA
:104A0800805343F48053A38118BFA38110BDB1F92B
:104A18000E1000F0D3B80000F8B50E46144605464F
:104A280018B183690BB9FFF71BFA214B9C422AD1B5
:104A38006C68A369A360A3891A072ED5236963B399
:104A480023692068F6B2C01A63693746834204DCDA
:104A58002146284600F048F928BBA3680130013BED
:104A6800A36023685A1C22601E706369834204D0C5
:104A7800A389DB0719D50A2E17D12146284600F04D
:104A880033F990B10FE00B4B9C4201D1AC68D0E7F1
:104A9800094B9C4208BFEC68CBE72146284600F04A
:104AA8001FF80028CCD04FF0FF373846F8BD00BFBC
:104AB800B44F0008D44F0008944F000838B5054695
:104AC800084611460022054C22601A46FDF784FD6F
:104AD800431C02D1236803B12B6038BDD0020020EB
:104AE800324B70B51D6806460C4625B1AB6913B943
:104AF8002846FFF7B5F92E4B9C420FD16C68B4F9E4
:104B08000C309AB215072CD4D00611D40922326081
:104B180043F04003A3814FF0FF303EE0254B9C4219
:104B280001D1AC68EBE7244B9C4208BFEC68E6E790
:104B3800510712D5616B41B104F14403994202D087
:104B48003046FFF731FD00236363A38923F0240374
:104B5800A3810023636023692360A38943F00803CA
:104B6800A38123694BB9A38903F42073B3F5007FAC
:104B780003D02146304600F017F9A28912F001034C
:104B88000CD00023A36063695B42A361236953B916
:104B9800B4F90C3013F08000BAD170BD920758BF39
:104BA8006369A360F2E70020F7E700BF1800002060
:104BB800B44F0008D44F0008944F000838B50023BC
:104BC800054C054608462360FDF732FD431C02D11B
:104BD800236803B12B6038BDD00200208A892DE9F3
:104BE800F041054610070C4658D44B68002B05DCED
:104BF8000B6C002B02DC0020BDE8F081E66A002E79
:104C0800F9D0002312F480522F68216A2B6032D029
:104C1800606DA3895A0705D56368C01A636B0BB129
:104C2800236CC01A00230246E66A216A2846B04768
:104C3800431CA38906D129681D2948D8294ACA4096
:104C4800D60744D5002262602269D904226004D5BF
:104C5800421C01D12B6803B96065616B2F60002984
:104C6800C9D004F14403994202D02846FFF79CFCBE
:104C780000206063C0E701232846B047411CC8D123
:104C88002B68002BC5D01D2B01D0162B01D12F600E
:104C9800B1E7A38943F04003A381ADE70F69002F73
:104CA800A9D0930718BF00230E6808BF4B69A6EB6D
:104CB80007080F608B60B8F1000F9CDD43463A4649
:104CC800216A2846A66AB047002806DCA38943F073
:104CD8004003A3814FF0FF308EE70744A8EB00089C
:104CE800E9E700BF0100402038B50B6905460C46CE
:104CF800DBB118B183690BB9FFF7B2F80C4B9C42D2
:104D080009D16C68B4F90C307BB121462846BDE85E
:104D18003840FFF763BF074B9C4201D1AC68F1E70D
:104D2800054B9C4208BFEC68ECE7002038BD00BF8B
:104D3800B44F0008D44F0008944F000838B5054612
:104D4800084611460022054C22601A46FDF77AFCF7
:104D5800431C02D1236803B12B6038BDD002002068
:104D680070B50E46B1F90E1096B0002914461D46CE
:104D780007DA00232B60B3891A0610D44FF4806336
:104D88000EE06A4600F084F80028F2DB019A02F48B
:104D98007042A2F500535A425A412A60EEE7402376
:104DA8000020236016B070BD8B8973B59D07064639
:104DB8000C4607D504F1470323602361012363618F
:104DC80002B070BD01AB6A46FFF7CAFF00990546FD
:104DD8003046FFF735FC48B9B4F90C309A05EFD4E2
:104DE80023F0030343F00203A381E3E70D4BB3620F
:104DF800A389206043F08003A381009B2061636145
:104E0800019B5BB1B4F90E10304600F053F828B19D
:104E1800A38923F0030343F00103A381A3891D435E
:104E2800A581CDE7313E000882B001B901A942B1A0
:104E38004BB113780B601278101C18BF012002B018
:104E480070471046FBE76FF00100F8E770477047BE
:104E580038B50546084611460022054C22601A4618
:104E6800FDF7ACFB431C02D1236803B12B6038BDAE
:104E7800D002002049B1FF2A8BBF8A230A70036041
:104E8800012088BF4FF0FF30704708467047000088
:104E980038B50023064C0546084611462360FDF741
:104EA800CAFB431C02D1236803B12B6038BD00BF85
:104EB800D002002038B50023054C0546084623607B
:104EC800FDF7BEFB431C02D1236803B12B6038BD3C
:104ED800D0020020F8B500BFF8BC08BC9E46704759
:0C4EE800F8B500BFF8BC08BC9E4670473F
:104EF80002030405060708090A0B0C0D0E0F101013
:104F08000102000002030405060708090A0B0C0D3C
:104F18000E0F101001020000000000000000000049
:104F28000102030406070809000000000102030447
:104F38006475737456616C203D2025302E33660DE0
:104F48000A0000001C000020494E4600696E6600F9
:104F58004E414E006E616E003000303132333435D0
:104F680036373839414243444546003031323334CC
:104F7800353637383961626364656600496E66693B
:104F88006E697479004E614E000000000000000058
:104F98000000000000000000000000000000000009
:104FA80000000000000000000000000000000000F9
:104FB80000000000000000000000000000000000E9
:104FC80000000000000000000000000000000000D9
:104FD80000000000000000000000000000000000C9
:104FE80000000000000000000000000000000000B9
:104FF8000080E03779C34143176E05B5B5B89346CD
:10500800F5F93FE9034F384D321D30F94877825A98
:105018003CBF737FDD4F1575000000000000F03FB6
:10502800000000000000244000000000000059407B
:105038000000000000408F40000000000088C340CE
:1050480000000000006AF8400000000080842E4143
:1050580000000000D01263410000000084D797418F
:105068000000000065CDCD41000000205FA0024295
:10507800000000E876483742000000A2941A6D420A
:10508800000040E59C30A2420000901EC4BCD642FD
:1050980000003426F56B0C430080E03779C34143A8
:1050A80000A0D8855734764300C84E676DC1AB431E
:1050B800003D9160E458E143408CB5781DAF15443C
:1050C80050EFE2D6E41A4B4492D54D06CFF0804417
:1050D800F64AE1C7022DB544B49DD9794378EA442C
:1050E80005000000190000007D000000232D302B72
:1050F8002000686C4C0065666745464700430050D1
:105108004F534958002E0000202020202020202026
:10511800202828282828202020202020202020205F
:10512800202020202020202088101010101010107F
:1051380010101010101010100404040404040404C7
:105148000404101010101010104141414141410158
:105158000101010101010101010101010101010137
:105168000101011010101010104242424242420246
:105178000202020202020202020202020202020207
:1051880002020210101010200000000000000000B1
:105198000000000000000000000000000000000007
:1051A80000000000000000000000000000000000F7
:1051B80000000000000000000000000000000000E7
:1051C80000000000000000000000000000000000D7
:1051D80000000000000000000000000000000000C7
:1051E80000000000000000000000000000000000B7
:1051F80000000000000000000000000000000000A7
:0852080000000000000000009E
:045210000D02000883
:04521400E9010008A4
:105218000100000010000000180100002800000034
:10522800004017460024F4001C0000200000000085
:10523800B44F0008D44F0008944F00080000000045
:105248000000000000000000000000000000000056
:105258000000000000000000000000000000000046
:105268000000000000000000000000000000000036
:105278000000000000000000000000000000000026
:1052880000000000000000000000000043000000D3
:105298000000000000000000000000000000000006
:1052A80000000000000000000000000043000000B3
:1052B80000000000000000000000000000000000E6
:1052C8000000000000000000000000004300000093
:1052D80000000000000000000000000000000000C6
:1052E8000000000000000000000000004300000073
:1052F80000000000000000000000000000000000A6
:105308000000000000000000000000004300000052
:105318000000000000000000000000000000000085
:105328000000000000000000000000004300000032
:105338000000000000000000000000000000000065
:105348000000000000000000000000004300000012
:105358000000000000000000000000000000000045
:105368000000000000000000000000007D4E000862
:10537800314E0008000000000F5100080D510008D0
:10538800F9500008F9500008F9500008F9500008D1
:10539800F9500008F9500008F9500008F9500008C1
:1053A800F9500008FFFFFFFFFFFFFFFFFFFFFFFFB0
:1053B800FFFF00000100415343494900000000007D
:1053C80000000000000000000000000000000000D5
:1053D800000000000000415343494900000000005C
:1053E80000000000000000000000000000000000B5
:0853F8000000000000000000AD
:04000005080027E5E3
:00000001FF
