:020000040800F2
:1000000000000120B5440008B9410008BB410008C8
:10001000BD410008BF410008C141000800000000C8
:10002000000000000000000000000000C3410008C4
:10003000C541000800000000C7410008C941000890
:10004000FD440008FD440008FD440008FD4400088C
:10005000FD440008FD440008FD440008FD4400087C
:10006000FD440008FD440008FD440008FD4400086C
:10007000FD440008FD440008FD440008D14100088B
:10008000E1410008FD440008FD440008FD4400086B
:10009000FD440008FD440008FD440008FD4400083C
:1000A000FD440008FD440008FD440008FD4400082C
:1000B000FD440008FD440008FD440008FD4400081C
:1000C000FD440008FD440008FD440008FD4400080C
:1000D000FD440008FD440008FD440008FD440008FC
:1000E000FD440008FD440008FD440008FD440008EC
:1000F000FD440008FD440008FD440008FD440008DC
:10010000FD440008FD440008FD440008FD440008CB
:10011000FD440008FD440008FD440008FD440008BB
:10012000FD440008FD440008FD440008FD440008AB
:1001300000000000000000000000000000000000BF
:1001400000000000000000000000000000000000AF
:10015000000000000000000000000000000000009F
:10016000000000000000000000000000000000008F
:10017000000000000000000000000000000000007F
:10018000000000000000000000000000000000006F
:10019000000000000000000000000000000000005F
:1001A000000000000000000000000000000000004F
:1001B000000000000000000000000000000000003F
:1001C000000000000000000000000000000000002F
:1001D000000000000000000000000000000000001F
:0401E0005FF8E0F1F3
:1001E80010B5054C237833B9044B13B10448AFF369
:1001F80000800123237010BDE801002000000000EA
:10020800985F000808B5034B1BB103490348AFF3D7
:10021800008008BD00000000EC010020985F000885
:1002280081F0004102E000BF83F0004330B54FEA9F
:1002380041044FEA430594EA050F08BF90EA020F0C
:100248001FBF54EA000C55EA020C7FEA645C7FEA9F
:10025800655C00F0E2804FEA5454D4EB5555B8BFC2
:100268006D420CDD2C4480EA020281EA030382EA33
:10027800000083EA010180EA020281EA0303362DC5
:1002880088BF30BD11F0004F4FEA01314FF4801C98
:100298004CEA113102D0404261EB410113F0004FAA
:1002A8004FEA03334CEA133302D0524263EB430361
:1002B80094EA050F00F0A780A4F10104D5F1200EFF
:1002C8000DDB02FA0EFC22FA05F2801841F100015A
:1002D80003FA0EF2801843FA05F359410EE0A5F12E
:1002E80020050EF1200E012A03FA0EFC28BF4CF05F
:1002F800020C43FA05F3C01851EBE37101F0004515
:1003080007D54FF0000EDCF1000C7EEB00006EEB21
:100318000101B1F5801F1BD3B1F5001F0CD34908AB
:100328005FEA30004FEA3C0C04F101044FEA445202
:1003380012F5800F80F09A80BCF1004F08BF5FEA89
:10034800500C50F1000041EB045141EA050130BD69
:100358005FEA4C0C404141EB010111F4801FA4F10C
:100368000104E9D191F0000F04BF01460020B1FA61
:1003780081F308BF2033A3F10B03B3F120020CDA99
:100388000C3208DD02F1140CC2F10C0201FA0CF077
:1003980021FA02F10CE002F11402D8BFC2F1200CDC
:1003A80001FA02F120FA0CFCDCBF41EA0C01904092
:1003B800E41AA2BF01EB0451294330BD6FEA0404DB
:1003C8001F3C1CDA0C340EDC04F11404C4F12002C6
:1003D80020FA04F001FA02F340EA030021FA04F3D8
:1003E80045EA030130BDC4F10C04C4F1200220FA2F
:1003F80002F001FA04F340EA0300294630BD21FA6D
:1004080004F0294630BD94F0000F83F4801306BF32
:1004180081F480110134013D4EE77FEA645C18BF26
:100428007FEA655C29D094EA050F08BF90EA020FBD
:1004380005D054EA000C04BF1946104630BD91EAB5
:10044800030F1EBF0021002030BD5FEA545C05D1B8
:100458004000494128BF41F0004130BD14F58004F7
:100468003CBF01F5801130BD01F0004545F0FE416B
:1004780041F470014FF0000030BD7FEA645C1ABFA0
:10048800194610467FEA655C1CBF0B46024650EAD7
:10049800013406BF52EA033591EA030F41F4002103
:1004A80030BD00BF90F0000F04BF0021704730B589
:1004B8004FF4806404F132044FF000054FF000015E
:1004C80050E700BF90F0000F04BF0021704730B51F
:1004D8004FF4806404F1320410F0004548BF4042F4
:1004E8004FF000013EE700BF42004FEAE2014FEA49
:1004F80031014FEA02701FBF12F07F4393F07F4F24
:1005080081F06051704732F07F4208BF704793F026
:100518007F4F04BF41F40021704730B54FF4607439
:1005280001F0004521F000411CE700BF50EA01023C
:1005380008BF704730B54FF000050AE050EA0102E5
:1005480008BF704730B511F0004502D5404261EB55
:1005580041014FF4806404F132045FEA915C3FF496
:10056800D8AE4FF003025FEADC0C18BF03325FEA33
:10057800DC0C18BF033202EBDC02C2F1200300FAE4
:1005880003FC20FA02F001FA03FE40EA0E0021FA09
:1005980002F11444BDE600BF70B54FF0FF0C4CF4F7
:1005A800E06C1CEA11541DBF1CEA135594EA0C0FA9
:1005B80095EA0C0F00F0DEF82C4481EA030621EAE4
:1005C8004C5123EA4C5350EA013518BF52EA03351F
:1005D80041F4801143F4801338D0A0FB02CE4FF0D1
:1005E8000005E1FB02E506F00042E0FB03E54FF001
:1005F8000006E1FB03569CF0000F18BF4EF0010EF9
:10060800A4F1FF04B6F5007F64F5407404D25FEAF4
:100618004E0E6D4146EB060642EAC62141EA5551A7
:100628004FEAC52040EA5E504FEACE2EB4F1FD0CE9
:1006380088BFBCF5E06F1ED8BEF1004F08BF5FEA67
:10064800500E50F1000041EB045170BD06F0004619
:1006580046EA010140EA020081EA0301B4EB5C04C6
:10066800C2BFD4EB0C0541EA045170BD41F48011BE
:100678004FF0000E013C00F3AB8014F1360FDEBFE3
:10068800002001F0004170BDC4F10004203C35DABF
:100698000C341BDC04F11404C4F1200500FA05F342
:1006A80020FA04F001FA05F240EA020001F00042E3
:1006B80021F0004110EBD37021FA04F642EB060159
:1006C8005EEA430E08BF20EAD37070BDC4F10C0483
:1006D800C4F1200500FA04F320FA05F001FA04F247
:1006E80040EA020001F0004110EBD37041F1000133
:1006F8005EEA430E08BF20EAD37070BDC4F120053E
:1007080000FA05F24EEA020E20FA04F301FA05F2A5
:1007180043EA020321FA04F001F0004121FA04F24D
:1007280020EA020000EBD3705EEA430E08BF20EA1D
:10073800D37070BD94F0000F0FD101F00046400057
:1007480041EB010111F4801F08BF013CF7D041EAD9
:10075800060195F0000F18BF704703F000465200DD
:1007680043EB030313F4801F08BF013DF7D043EAAE
:100778000603704794EA0C0F0CEA135518BF95EA64
:100788000C0F0CD050EA410618BF52EA4306D1D1EB
:1007980081EA030101F000414FF0000070BD50EA0A
:1007A800410606BF1046194652EA430619D094EA94
:1007B8000C0F02D150EA013613D195EA0C0F05D17E
:1007C80052EA03361CBF104619460AD181EA0301D2
:1007D80001F0004141F0FE4141F470014FF000008A
:1007E80070BD41F0FE4141F4780170BD70B54FF025
:1007F800FF0C4CF4E06C1CEA11541DBF1CEA1355A5
:1008080094EA0C0F95EA0C0F00F0A7F8A4EB050486
:1008180081EA030E52EA03354FEA013100F088807D
:100828004FEA03334FF0805545EA131343EA126346
:100838004FEA022245EA111545EA10654FEA0026FB
:100848000EF000419D4208BF964244F1FD0404F5B4
:10085800407402D25B084FEA3202B61A65EB030510
:100868005B084FEA32024FF480104FF4002CB6EBCD
:10087800020E75EB030E22BFB61A754640EA0C004D
:100888005B084FEA3202B6EB020E75EB030E22BF8D
:10089800B61A754640EA5C005B084FEA3202B6EBCE
:1008A800020E75EB030E22BFB61A754640EA9C008D
:1008B8005B084FEA3202B6EB020E75EB030E22BF5D
:1008C800B61A754640EADC0055EA060E18D04FEA1B
:1008D800051545EA16754FEA06164FEAC30343EABB
:1008E80052734FEAC2025FEA1C1CC0D111F4801F88
:1008F8000BD141EA00014FF000004FF0004CB6E781
:1009080011F4801F04BF01430020B4F1FD0C88BF1F
:10091800BCF5E06F3FF6AFAEB5EB030C04BFB6EB2A
:10092800020C5FEA500C50F1000041EB045170BD1D
:100938000EF0004E4EEA113114EB5C04C2BFD4EB4A
:100948000C0541EA045170BD41F480114FF0000ECE
:10095800013C90E645EA060E8DE60CEA135594EA4A
:100968000C0F08BF95EA0C0F3FF43BAF94EA0C0F4D
:100978000AD150EA01347FF434AF95EA0C0F7FF4C2
:1009880025AF104619462CE795EA0C0F06D152EA16
:1009980003353FF4FDAE1046194622E750EA4106FA
:1009A80018BF52EA43067FF4C5AE50EA41047FF40B
:1009B8000DAF52EA43057FF4EBAE12E74FEA41026E
:1009C800B2F1E04324BFB3F5001CDCF1FE5C0DD9A5
:1009D80001F0004C4FEAC0024CEA5070B2F1004FEF
:1009E80040EB830008BF20F00100704711F0804FF2
:1009F80021D113F13872BCBF01F00040704741F4B7
:100A080080114FEA5252C2F11802C2F1200C10FABA
:100A18000CF320FA02F018BF40F001004FEAC1239E
:100A28004FEAD32303FA0CFC40EA0C0023FA02F342
:100A38004FEA4303CCE77FEA625307D150EA013318
:100A48001EBF4FF0FE4040F44000704701F00040E8
:100A580040F0FE4040F40000704700BF80F00040C6
:100A680002E000BF81F0004142001FBF5FEA41037E
:100A780092EA030F7FEA226C7FEA236C6AD04FEA7E
:100A88001262D2EB1363C1BFD218414048404140C3
:100A9800B8BF5B42192B88BF704710F0004F40F475
:100AA800000020F07F4018BF404211F0004F41F491
:100AB800000121F07F4118BF494292EA030F3FD05D
:100AC800A2F1010241FA03FC10EB0C00C3F1200370
:100AD80001FA03F100F0004302D5494260EB4000FF
:100AE800B0F5000F13D3B0F1807F06D340084FEA6A
:100AF800310102F10102FE2A51D2B1F1004F40EB5F
:100B0800C25008BF20F0010040EA030070474900C6
:100B180040EB000010F4000FA2F10102EDD1B0FA91
:100B280080FCACF1080CB2EB0C0200FA0CF0AABF86
:100B380000EBC25052421843BCBFD0401843704724
:100B480092F0000F81F4000106BF80F4000001322A
:100B5800013BB5E74FEA41037FEA226C18BF7FEA01
:100B6800236C21D092EA030F04D092F0000F08BF43
:100B78000846704790EA010F1CBF0020704712F02A
:100B88007F4F04D1400028BF40F00040704712F169
:100B980000723CBF00F50000704700F0004343F0CE
:100BA800FE4040F4000070477FEA226216BF084604
:100BB8007FEA23630146420206BF5FEA412390EAC7
:100BC800010F40F4800070474FF0000304E000BFBD
:100BD80010F0004348BF40425FEA000C08BF70476E
:100BE80043F0964301464FF000001CE050EA010232
:100BF80008BF70474FF000030AE000BF50EA010247
:100C080008BF704711F0004302D5404261EB410133
:100C18005FEA010C02BF84460146002043F0B64358
:100C280008BFA3F18053A3F50003BCFA8CF2083A7D
:100C3800A3EBC25310DB01FA02FC634400FA02FC86
:100C4800C2F12002BCF1004F20FA02F243EB02008D
:100C580008BF20F00100704702F1200201FA02FCEF
:100C6800C2F1200250EA4C0021FA02F243EB0200E2
:100C780008BF20EADC7070474FF0FF0C1CEAD05226
:100C88001EBF1CEAD15392EA0C0F93EA0C0F6FD0E7
:100C98001A4480EA010C400218BF5FEA41211ED0C5
:100CA8004FF0006343EA501043EA5111A0FB0131B1
:100CB8000CF00040B1F5000F3EBF490041EAD37186
:100CC8005B0040EA010062F17F02FD2A1DD8B3F102
:100CD800004F40EBC25008BF20F00100704790F071
:100CE800000F0CF0004C08BF49024CEA502040EAC3
:100CF80051207F3AC2BFD2F1FF0340EAC250704789
:100D080040F400004FF00003013A5DDC12F1190FC6
:100D1800DCBF00F000407047C2F10002410021FA38
:100D280002F1C2F1200200FA02FC5FEA310040F150
:100D3800000053EA4C0308BF20EADC70704792F0C9
:100D4800000F00F0004C02BF400010F4000F013A01
:100D5800F9D040EA0C0093F0000F01F0004C02BFFC
:100D6800490011F4000F013BF9D041EA0C018FE76B
:100D78000CEAD15392EA0C0F18BF93EA0C0F0AD071
:100D880030F0004C18BF31F0004CD8D180EA010097
:100D980000F00040704790F0000F17BF90F0004F30
:100DA800084691F0000F91F0004F14D092EA0C0F12
:100DB80001D142020FD193EA0C0F03D14B0218BFA5
:100DC800084608D180EA010000F0004040F0FE40EB
:100DD80040F40000704740F0FE4040F44000704787
:100DE8004FF0FF0C1CEAD0521EBF1CEAD15392EA06
:100DF8000C0F93EA0C0F69D0A2EB030280EA010CF6
:100E080049024FEA402037D04FF0805343EA11118E
:100E180043EA10130CF000408B4238BF5B0042F1EC
:100E28007D024FF4000C8B4224BF5B1A40EA0C0091
:100E3800B3EB510F24BFA3EB510340EA5C00B3EBC3
:100E4800910F24BFA3EB910340EA9C00B3EBD10FB1
:100E580024BFA3EBD10340EADC001B0118BF5FEA03
:100E68001C1CE0D1FD2A3FF650AF8B4240EBC2502C
:100E780008BF20F0010070470CF0004C4CEA5020ED
:100E88007F32C2BFD2F1FF0340EAC250704740F43C
:100E980000004FF00003013A37E792F0000F00F02E
:100EA800004C02BF400010F4000F013AF9D040EAAC
:100EB8000C0093F0000F01F0004C02BF490011F440
:100EC800000F013BF9D041EA0C0195E70CEAD15338
:100ED80092EA0C0F08D142027FF47DAF93EA0C0F1F
:100EE8007FF470AF084676E793EA0C0F04D14B0203
:100EF8003FF44CAF08466EE730F0004C18BF31F0B5
:100F0800004CCAD130F000427FF45CAF31F00043AE
:100F18007FF43CAF5FE700BF4FF0FF3C06E000BF47
:100F28004FF0010C02E000BF4FF0010C4DF804CD6A
:100F38004FEA40024FEA41037FEA226C18BF7FEA7A
:100F4800236C11D001B052EA530C18BF90EA010F7C
:100F580058BFB2EB030088BFC81738BF6FEAE1700B
:100F680018BF40F0010070477FEA226C02D15FEAA7
:100F7800402C05D17FEA236CE4D15FEA412CE1D013
:100F88005DF8040B704700BF844608466146FFE7DA
:100F98000FB5FFF7C9FF002848BF10F1000F0FBDBC
:100FA8004DF808EDFFF7F4FF0CBF012000205DF8B5
:100FB80008FB00BF4DF808EDFFF7EAFF34BF01203A
:100FC80000205DF808FB00BF4DF808EDFFF7E0FFD3
:100FD80094BF012000205DF808FB00BF4DF808ED24
:100FE800FFF7D2FF94BF012000205DF808FB00BF87
:100FF8004DF808EDFFF7C8FF34BF012000205DF869
:1010080008FB00BF42000ED2B2F1FE4F0BD34FF0E7
:101018009E03B3EB126209D44FEA002343F0004366
:1010280023FA02F070474FF00000704712F1610F89
:1010380001D1420202D14FF0FF3070474FF000005B
:10104800704700BF034613F8012B002AFBD1181A7A
:10105800013870474FF0FF3C06E000BF4FF0010C2D
:1010680002E000BF4FF0010C4DF804CD4FEA410CEF
:101078007FEA6C5C4FEA430C18BF7FEA6C5C1BD0BC
:1010880001B050EA410C0CBF52EA430C91EA030F3D
:1010980002BF90EA020F0020704710F1000F91EA9A
:1010A800030F58BF994208BF90422CBFD8176FEA68
:1010B800E37040F0010070474FEA410C7FEA6C5C36
:1010C80002D150EA013C07D14FEA430C7FEA6C5C3D
:1010D800D6D152EA033CD3D05DF8040B704700BF69
:1010E8008446104662468C461946634600E000BFB7
:1010F80001B5FFF7B7FF002848BF10F1000F01BD89
:101108004DF808EDFFF7F4FF0CBF012000205DF853
:1011180008FB00BF4DF808EDFFF7EAFF34BF0120D8
:1011280000205DF808FB00BF4DF808EDFFF7E0FF71
:1011380094BF012000205DF808FB00BF4DF808EDC2
:10114800FFF7CEFF94BF012000205DF808FB00BF29
:101158004DF808EDFFF7C4FF34BF012000205DF80B
:1011680008FB00BF4FEA410C7FEA6C5C02D150EAF1
:10117800013C0AD14FEA430C7FEA6C5C02D152EA87
:10118800033C02D14FF0000070474FF00100704758
:101198004FEA410212F5001215D211D56FF4787397
:1011A800B3EB625212D94FEAC12343F0004343EA3A
:1011B800505311F0004F23FA02F018BF4042704715
:1011C8004FF00000704750EA013005D111F000409F
:1011D80008BF6FF0004070474FF00000704700BF35
:1011E80010B504460E4B18784FF47A73B3FBF0F33E
:1011F8000C4A1068B0FBF3F000F048FB68B90F2CFC
:1012080001D901200AE0002221464FF0FF3000F00A
:10121800FBFA034B5C60002000E0012010BD00BF1A
:10122800000000201400002008B5074A136843F0A6
:1012380010031360032000F0D5FA0020FFF7D0FF59
:1012480002F094FF002008BD00200240034A116804
:10125800034B1B780B441360704700BF1402002037
:1012680000000020014B1868704700BF14020020DE
:1012780038B50446FFF7F6FF0546B4F1FF3F02D044
:10128800044B1B781C44FFF7EDFF401BA042FAD328
:1012980038BD00BF000000200368D86C704700000C
:1012A80030B482B00023019390F82430012B00F071
:1012B8008B800246012380F824304B68062B29D8FE
:1012C8000568686B03EB8303053B1F249C4020EAF9
:1012D80004000C6804FA03F303436B630B68092BDF
:1012E80038D91568E86803EB43031E3B07249C4084
:1012F80020EA04008C6804FA03F30343EB600B68EC
:10130800103B012B34D90020002382F8243002B08E
:1013180030BC70470C2B0ED80568286B03EB830391
:10132800233B1F249C4020EA04000C6804FA03F3C2
:1013380003432B63D2E70568E86A03EB8303413B69
:101348001F249C4020EA04000C6804FA03F30343BA
:10135800EB62C3E71568286903EB430307249C4045
:1013680020EA04008C6804FA03F303432B61C6E700
:1013780013681648834205D0936A43F020039362AA
:101388000120C1E7986810F4000F1BD1986840F459
:10139800000098600B68102B01D00020B4E70C4BBC
:1013A8001B680C49A1FB03139B0C03EB8303590037
:1013B800019102E0019B013B0193019B002BF9D1B4
:1013C8000020A1E700209FE70220A0E700240140B9
:1013D8001400002083DE1B4330B583B00023019343
:1013E80003689A6812F0010F2ED19A6842F0010240
:1013F8009A60174B1B68174AA2FB03239B0C0193A7
:1014080002E0019B013B0193019B002BF9D10446AB
:10141800FFF728FF054623689B6813F0010F11D1D9
:10142800FFF720FF401B0228F5D9A36A43F01003F9
:10143800A362E36A43F00103E362002384F82430E3
:10144800012002E0002000E0002003B030BD00BF12
:101458001400002083DE1B4390F82430012B6AD04F
:1014680010B50446012380F82430FFF7B5FF024683
:1014780000285BD1A36A23F4407323F0010343F4EB
:101488008073A36223682D498B4227D0A16A21F477
:101498008011A162596811F4806F05D0A16A21F406
:1014A800405141F48051A162A16A11F4805F2BD0B0
:1014B800E16A21F00601E162002184F824106FF04E
:1014C800020119602368996801F46021B1F5602F61
:1014D8001DD0996841F4801199602AE0A1F58061D6
:1014E800496811F4702FD1D0A16A41F48011A1622A
:1014F8001349496811F4806FD6D0A16A21F440518C
:1015080041F48051A162CFE70021E162D4E70B49A1
:101518008B4204D0996841F4A001996009E0A1F5D3
:101528008061496811F4702FD3D1F3E7002384F860
:101538002430104610BD0222104670470028014092
:101548000024014038B503689A6812F0010F01D1F0
:10155800002038BD04469A6822F001029A60FFF71D
:1015680081FE054623689B6813F0010F0ED0FFF734
:1015780079FE401B0228F5D9A36A43F01003A36241
:10158800E36A43F00103E3620120E2E70020E0E7B9
:10159800002800F08A8070B50446836A002B36D094
:1015A8002046FFF7CFFFA36A13F0100377D1002876
:1015B80075D1A26A22F4885222F0020242F0020295
:1015C800A262626825683A498D4226D0E1690A43D9
:1015D800267B42EA4602A168B1F5807F27D001291F
:1015E80022D0217D012925D0696821F469410B4366
:1015F8006B6021688D682F4B2B4013438B60A36869
:10160800B3F5807F27D0012B25D0002126E0C362C7
:1016180080F8243001F0E0FBC2E7E169B1F5402F22
:10162800D5D14FF40021D2E74FF48073D9E74FF4B6
:101638008073D6E736B9A169013943EA413343F4E7
:101648000063D1E7A16A41F02001A162E16A41F09B
:101658000101E162C8E72369013B19052568EB6AC6
:1016680023F470030B43EB6223689968124B0B4019
:101678009A420BD0A36A23F0120343F01003A3622B
:10168800E36A43F00103E36201200DE00023E36213
:10169800A36A23F0030343F00103A36204E0A36AEF
:1016A80043F01003A362012070BD0120704700BF02
:1016B800003C0140FDF7E1FFFE0E1FFF90F82430CB
:1016C800012B15D010B50446012380F82430FFF70C
:1016D80039FF024638B9A36A23F4885323F001037B
:1016E80043F00103A362002384F82430104610BDA0
:1016F800022210467047000070B582B000230193A3
:1017080090F82430012B68D00446012380F8243057
:10171800FFF718FF054628B1002384F8243028462F
:1017280002B070BDA36A23F4885323F0020343F088
:101738000203A3622A4B1E68022001F009F8B6FBD7
:10174800F0F04000019002E0019B013B0193019BF6
:10175800002BF9D12046FFF73FFE2268936843F03B
:1017680008039360FFF77EFD064623689A6812F027
:10177800080F0FD0FFF776FD801B0A28F5D9A36A5A
:1017880023F0120343F01003A362002384F82430EB
:101798000125C4E79A6842F004029A60FFF762FDE7
:1017A800064623689B6813F0040F0FD0FFF75AFD15
:1017B800801B0A28F5D9A36A23F0120343F010030B
:1017C800A362002384F824300125A8E7A36A23F044
:1017D800030343F00103A3629EE702259FE700BFCE
:1017E80014000020074AD36823F4E0631B041B0C91
:1017F800000200F4E060184340F0BF6040F400309D
:10180800D060704700ED00E030B4174BDB68C3F3DD
:101818000223C3F10704042C28BF04241D1D062D30
:1018280018D9033B4FF0FF3505FA04F421EA040107
:10183800994005FA03F322EA0303194300280BDB56
:101848000901C9B200F1604000F5614080F8001359
:1018580030BC70470023E5E700F00F000901C9B26A
:10186800024B1954F4E700BF00ED00E014ED00E06E
:10187800002807DB00F01F02400901239340024AB9
:1018880042F82030704700BF00E100E00138B0F1B5
:10189800807F0AD2064B5860064AF02182F823104E
:1018A8000020986007221A6070470120704700BF27
:1018B80010E000E000ED00E000283BD010B4034643
:1018C80001681D4A91422AD81C4A0A441C49A1FBB6
:1018D80002121209920002641A4AC263022283F8B1
:1018E80021201868016821F47F5121F030015A68DD
:1018F8009C682243DC6822431C6922435C692243BA
:101908009C692243DC6922430A43026000209863F1
:10191800012283F8212083F8200010BC70470A4A6E
:101928000A440749A1FB0212120992000264074AFD
:10193800C263D3E70120704707040240F8FFFDBFE8
:10194800CDCCCCCC00000240F8FBFDBF0004024027
:1019580038B5C36B1A6804682568016C04238B408A
:10196800134200F09B8015F0040F00F09780236865
:1019780013F0200F03D1236823F0040323600368C6
:10198800AA4A934246D9783A934224D014329342D1
:1019980028D01432934227D01432934227D01432DD
:1019A800934227D01432934227D01432934227D03F
:1019B80002F56272934226D01432934225D0143233
:1019C800934224D01432934202D04FF4802203E091
:1019D8004FF4804200E00422954B5A60C36A03B179
:1019E800984738BD4022F7E74FF48062F4E74FF498
:1019F8008042F1E74FF48022EEE74FF48002EBE7F4
:101A08004FF08062E8E70422E6E74022E4E74FF47B
:101A18008062E1E7874A934224D01432934225D06A
:101A28001432934224D01432934224D01432934275
:101A380024D01432934224D01432934224D002F595
:101A48006272934223D01432934222D014329342CA
:101A580021D01432934202D04FF4802203E04FF495
:101A6800804200E00422744B5A60B7E74022FAE74C
:101A78004FF48062F7E74FF48042F4E74FF4802296
:101A8800F1E74FF48002EEE74FF08062EBE70422C3
:101A9800E9E74022E7E74FF48062E4E702238B405E
:101AA800134200F0A38015F0020F00F09F80236816
:101AB80013F0200F06D1236823F00A0323600123C3
:101AC80080F821300368594A93424BD9783A9342B7
:101AD80024D0143293422DD0143293422CD0143295
:101AE80093422CD0143293422CD0143293422CD0EF
:101AF800143293422CD002F5627293422BD01432E6
:101B080093422AD01432934229D01432934202D0FD
:101B18004FF4003203E04FF4005200E00222444B3D
:101B28005A60002380F82030836A002B3FF459AFB5
:101B3800984756E72022F2E74FF40072EFE74FF498
:101B48000052ECE74FF40032E9E74FF40012E6E701
:101B58004FF00072E3E70222E1E72022DFE74FF4CB
:101B68000072DCE7334A934224D01432934225D0E2
:101B78001432934224D01432934224D01432934224
:101B880024D01432934224D01432934224D002F544
:101B98006272934223D01432934222D01432934279
:101BA80021D01432934202D04FF4003203E04FF4B4
:101BB800005200E00222204B5A60B2E72022FAE7E6
:101BC8004FF40072F7E74FF40052F4E74FF4003295
:101BD800F1E74FF40012EEE74FF00072EBE7022254
:101BE800E9E72022E7E74FF40072E4E7082303FA65
:101BF80001F111423FF4F5AE15F0080F3FF4F1AED4
:101C0800236823F00E032360026CC16B012303FADF
:101C180002F24A60836380F82130002380F8203084
:101C2800036B002B3FF4DDAE9847DAE680000240F4
:101C3800000402400800024000000240F0B482B0F4
:101C480000263246ABE0002D63D0012D00D1CE68CE
:101C5800FF2B72D88446FF2B72D89500DCF8004021
:101C68000F27AF4024EA070406FA05F52C43CCF801
:101C780000404C6814F0805F00F09080664CA569C5
:101C880045F00105A561A46904F001040194019CD3
:101C98009508AF1C614C54F827C002F00304A70054
:101CA8000F24BC402CEA040C5D4CA0424ED004F535
:101CB8008064A04200F08C8004F58064A04200F0AB
:101CC800898004F58064A04200F0868004F5806471
:101CD800A04200F0838004F58064A04234D006243A
:101CE80035E0504FBD4214D00BD94F4FBD4210D0F4
:101CF80007F58037BD420CD0A7F58017BD42A7D1A4
:101D080007E0A7F58017BD4203D007F58037BD422D
:101D18009ED18D687DB1012D08D04461082697E7D2
:101D2800CE68083694E7CE680C3691E70461082639
:101D38008EE700268CE704268AE700F1040C8AE780
:101D4800A2F10805AD0089E7052400E00024BC40A5
:101D580044EA0C040235314F47F825404C6814F426
:101D6800803F3DD0314D2C681C432C604C6814F4E6
:101D7800003F3BD02D4D6C681C436C604C6814F4DC
:101D8800801F39D0294DAC681C43AC604C6814F4F2
:101D9800001F37D0254DEC682343EB6001320B68F8
:101DA80033FA02F434D00124944023409C42F5D104
:101DB8004D68122DB7D094D8022DB1D07FF643AF1D
:101DC800032DB6D0112D7FF443AFCE6804363FE71C
:101DD8000124BCE70224BAE70324B8E70424B6E7E1
:101DE800124D2C6824EA03042C60BFE70F4D6C6881
:101DF80024EA03046C60C1E70C4DAC6824EA0304D0
:101E0800AC60C3E7094DEC6824EA0303EB60C5E75F
:101E180002B0F0BC704700BF001002400000014053
:101E280000080140000021100000311000040140AA
:101E380012B909040161704701617047002800F078
:101E4800BE80F8B5044690F83D30002B6BD02423B3
:101E580084F83D302268136823F00103136000F012
:101E6800CDFB6268584B9A4262D8584B98428CBF57
:101E780000230123002B40F0A480554BA3FB002333
:101E88009B0C21684A6822F03F021A434A60256881
:101E98002A6A22F03F0266684B498E424ED80133C7
:101EA80013432B622568E96921F44F4121F0FF01B2
:101EB8006368454A93424BD801385B00B0FBF3F3A3
:101EC8000133C3F30B03042B38BF04230B43EB612B
:101ED80021680B6823F0C003E269206A02431343B8
:101EE8000B6021688B6823F4034323F0FF03226906
:101EF800E068024313438B602168CB6823F0FF033B
:101F08006269A06902431343CB602268136843F0F7
:101F18000103136000202064202384F83D302063EF
:101F280084F83E00F8BD80F83C3001F041F88EE7B7
:101F3800284B98428CBF002301239BE74FF49671EE
:101F480001FB03F32449A1FB03139B090133A7E712
:101F5800A268BAB9461E03EB4307B6FBF7F601368B
:101F6800C6F30B06B6FA86F6760936BBC2B901384F
:101F780003EB4303B0FBF3F30133C3F30B0242F467
:101F88000043A3E7461E03EB830707EB8707B6FB6F
:101F9800F7F60136C6F30B06B6FA86F67609E4E7D5
:101FA800013803EB830303EB8303B0FBF3F2013245
:101FB800C2F30B0242F4404388E7012386E701207D
:101FC80070470120AEE700BFA08601007F841E0095
:101FD80083DE1B43FF083D00D34D621082B0084BDF
:101FE8001B68084AA2FB03235B0A00FB03F001906D
:101FF80000BF019B5A1E0192002BF9D102B0704715
:1020080014000020D34D6210002800F0F58170B54F
:1020180082B00446036813F0010F2CD0AB4B5B6809
:1020280003F00C03042B1DD0A84B5B6803F00C03D2
:10203800082B12D06368B3F5803F41D0002B55D1EF
:1020480003F1804303F504331A6822F480321A60DE
:102058001A6822F480221A6037E09C4B5B6813F4FC
:10206800803FE7D0994B1B6813F4003F03D06368A7
:10207800002B00F0C381236813F0020F76D0934B36
:102088005B6813F00C0F5FD0904B5B6803F00C0398
:10209800082B54D02369002B00F08A808C4B012236
:1020A8001A60FFF7DFF80546884B1B6813F0020F2C
:1020B80075D1FFF7D7F8401B0228F5D90320A0E116
:1020C800824A136843F480331360636843B3FFF7AD
:1020D800C9F805467D4B1B6813F4003FCBD1FFF7C9
:1020E800C1F8401B6428F5D903208AE1B3F5A02F75
:1020F80009D0764B1A6822F480321A601A6822F4E2
:1021080080221A60E1E703F18043A3F53C331A68A3
:1021180042F480221A601A6842F480321A60D4E7C6
:10212800FFF7A0F80546694B1B6813F4003FA2D0DF
:10213800FFF798F8401B6428F5D9032061E1634B49
:102148005B6813F4803FA5D1604B1B6813F0020F46
:1021580004D02369012B01D0012052E15B4A1368A6
:1021680023F0F803616943EAC1031360236813F09D
:10217800080F32D0A369002B5BD0564B01221A609E
:10218800FFF770F80546514B5B6A13F0020F21D137
:10219800FFF768F8401B0228F5D9032031E14B4AC4
:1021A800136823F0F803616943EAC1031360DDE7AC
:1021B800474B00221A60FFF755F80546434B1B684A
:1021C80013F0020FD2D0FFF74DF8401B0228F5D9C3
:1021D800032016E10120FFF701FF236813F0040F25
:1021E80000F09880394BDB6913F0805F33D1374BAF
:1021F800DA6942F08052DA61DB6903F080530193B7
:10220800019B0125344B1B6813F4807F25D0E368BC
:10221800012B36D0002B4CD103F1804303F5043356
:102228001A6A22F001021A621A6A22F004021A6279
:102238002CE0284B00221A60FFF714F80546234BC0
:102248005B6A13F0020FC8D0FFF70CF8401B022896
:10225800F5D90320D5E00025D4E71F4A136843F4D5
:1022680080731360FEF7FEFF06461B4B1B6813F4D2
:10227800807FCCD1FEF7F6FF801B6428F5D90320B8
:10228800BFE0124A136A43F001031362E3687BB3A9
:10229800FEF7E8FF06460D4B1B6A13F0020F38D114
:1022A800FEF7E0FF801B41F288339842F3D9032000
:1022B800A7E0052B12D0054B1A6A22F001021A6218
:1022C8001A6A22F004021A62E0E700BF0010024016
:1022D8000000424280044242007000404C4B1A6A9F
:1022E80042F004021A621A6A42F001021A62CDE749
:1022F800FEF7B8FF0646464B1B6A13F0020F08D0DC
:10230800FEF7B0FF801B41F288339842F3D90320CF
:1023180077E0E5B9E369002B72D03D4A526802F0D4
:102328000C02082A56D0022B17D03A4B00221A600A
:10233800FEF798FF0446364B1B6813F0007F47D022
:10234800FEF790FF001B0228F5D9032059E0304A18
:10235800D36923F08053D361DCE72E4B00221A6047
:10236800FEF780FF05462A4B1B6813F0007F06D056
:10237800FEF778FF401B0228F5D9032041E0236AC5
:10238800B3F5803F1AD022494B6823F47413226AAC
:10239800606A024313434B601E4B01221A60FEF72A
:1023A80061FF04461A4B1B6813F0007F0ED1FEF73D
:1023B80059FF001B0228F5D9032022E0144A53686C
:1023C80023F40033A1680B435360DCE7002018E0D6
:1023D800002016E0012B16D00D4B5B6803F480310A
:1023E800226A914201D001200BE003F47013626A63
:1023F80093420AD0012004E001207047012000E048
:10240800002002B070BD0120FBE70020F9E700BF03
:10241800001002406000424210B487B0164C94E8A5
:102428000F000DF1180C0CE90F00238AADF80430E9
:10243800124B5B6803F00C02082A1AD1C3F38342DB
:10244800624412F8102C13F4803F05D10C4800FBAD
:1024580002F007B010BC7047084B5B68C3F34043F9
:10246800634413F8143C074800FB02F0B0FBF3F098
:10247800EFE70448EDE700BFB05F00080010024036
:1024880000093D0000127A00002800F0A38070B512
:102498000446524B1B6803F007038B420CD24F4A89
:1024A800136823F007030B431360136803F0070353
:1024B8008B4201D0012070BD236813F0020F17D0A2
:1024C80013F0040F04D0464A536843F4E0635360A2
:1024D800236813F0080F04D0414A536843F460534B
:1024E80053603F4A536823F0F003A06803435360E6
:1024F8000D46236813F0010F31D06368012B20D0FB
:10250800022B25D0364A126812F0020F64D03449E3
:102518004A6822F0030213434B60FEF7A3FE064607
:102528002F4B5B6803F00C036268B3EB820F16D085
:10253800FEF798FE801B41F288339842F0D90320B9
:10254800B9E7274A126812F4003FE0D10120B2E748
:10255800234A126812F0007FD9D10120ABE71F4B44
:102568001B6803F00703AB420CD91C4A136823F01D
:1025780007032B431360136803F00703AB4201D032
:10258800012098E7236813F0040F06D0144A536813
:1025980023F4E063E1680B435360236813F0080FEA
:1025A80007D00F4A536823F46053216943EAC103F3
:1025B8005360FFF731FF0A4B5B68C3F30313094A03
:1025C800D35CD840084B1860084B1868FEF708FE23
:1025D800002070E70120704701206CE700200240CE
:1025E80000100240E46000081400002004000020ED
:1025F800014B1868704700BF1400002008B5FFF7AA
:10260800F7FF044B5B68C3F30223034AD35CD8404B
:1026180008BD00BF00100240F460000808B5FFF7CD
:10262800E7FF044B5B68C3F3C223034AD35CD8407B
:1026380008BD00BF00100240F460000870B582B009
:102648000446036813F0010F34D03E4BDB6913F0E6
:10265800805F48D13B4BDA6942F08052DA61DB692E
:1026680003F080530193019B0125374B1B6813F43A
:10267800807F3AD0334B1B6A13F4407311D06268E1
:1026880002F440729A420CD02E4A136A23F4407026
:102698002E4901260E6000260E60106213F0010F0D
:1026A80037D1284A136A23F4407361680B431362D5
:1026B800002D3FD1236813F0020F06D0214A53683A
:1026C80023F44043A1680B435360236813F0100FB1
:1026D80035D01C4A536823F4800361690B43536067
:1026E800002002B070BD0025BFE7174A136843F405
:1026F80080731360FEF7B6FD0646134B1B6813F490
:10270800807FB7D1FEF7AEFD801B6428F5D9032082
:10271800E7E7FEF7A7FD06460A4B1B6A13F0020F10
:10272800BFD1FEF79FFD801B41F288339842F3D951
:102738000320D6E7D36923F08053D361BAE700209A
:10274800CFE700BF00100240007000404004424242
:1027580030B587B005463F4C94E80F000DF1180CD2
:102768000CE90F00238AADF80430681E0F2866D8DC
:10277800DFE800F0395A6532656565366565656577
:1027880065656508344B5A681B6813F0807F58D01C
:10279800C2F3834306A90B4413F8100C12F4803FCC
:1027A80016D02D4B5B68C3F340430B4413F8142C2D
:1027B8002A4BB3FBF2F300FB03F0274B5B6813F4DF
:1027C800800F0BD14000264BA3FB0030400805E0EA
:1027D800244B03FB00F0F0E7FFF71EFE07B030BD07
:1027E800FFF71AFEFAE71C4B1B6A40F202321A4046
:1027F800B2F5817F27D003F44073B3F5007F04D08E
:10280800B3F5407F09D00020E8E7134A526A12F076
:10281800020FF5D049F64040E0E70F4B1B6813F470
:10282800003F13D10020D9E7FFF7F8FE0A4B5B6899
:10283800C3F3813301335B00B0FBF3F0CEE7002034
:10284800CCE70020CAE74FF40040C7E74FF2244026
:10285800C4E700BFC45F00080010024000127A00FD
:10286800ABAAAAAA00093D0010B4036A046A24F0BE
:1028780001040462846924F0F00444EA021223F09B
:102888000A030B438261036210BC704710B4036AE9
:1028980023F0100303628469036A24F4704444EA51
:1028A800023223F0A00343EA01138261036210BCE1
:1028B8007047836823F07003194341F00701816072
:1028C8007047022380F83D300268936803F00703DD
:1028D800062B03D0136843F001031360012380F82B
:1028E8003D3000207047022380F83D300368196AA4
:1028F80041F21112114208D1196A40F244421142C0
:1029080003D11A6822F001021A60012380F83D30D1
:10291800002070470368244A904212D002F50062F2
:1029280090420ED0B0F1804F0BD0A2F59832904271
:1029380007D002F58062904203D002F5806290428F
:1029480003D123F070034A681343174A904212D008
:1029580002F5006290420ED0B0F1804F0BD0A2F584
:102968009832904207D002F58062904203D002F577
:102978008062904203D123F44073CA68134323F062
:1029880080034A69134303608B68C3620B688362E0
:10299800054B984203D003F50063984201D10B69B7
:1029A8000363012343617047002C0140A8B110B5AF
:1029B800044690F83D305BB1022384F83D30211D78
:1029C8002068FFF7A7FF012384F83D30002010BDE1
:1029D80080F83C3001F084FCEEE70120704710B429
:1029E800846824F47F4442EA03230B43234383602F
:1029F80010BC704790F83C30012B66D010B50446E7
:102A0800012380F83C30022380F83D300268936847
:102A180023F47F4323F0770393600B68402B4AD05D
:102A280013D9602B3DD01ED9702B28D0B3F5005F89
:102A380030D1CB684A6889680068FFF7D0FF226800
:102A4800936843F48043936024E0102B06D004D9A4
:102A5800202B03D0302B01D01CE0DBB919462068AD
:102A6800FFF727FF16E0502B14D1CA6849680068A1
:102A7800FFF7FAFE50212068FFF71BFF0AE0CB683A
:102A88004A6889680068FFF7AAFF2268936843F0DC
:102A980077039360012384F83D30002084F83C00DC
:102AA80010BDCA6849680068FFF7F0FE6021206819
:102AB800FFF7FFFEEEE7CA6849680068FFF7D4FE33
:102AC80040212068FFF7F5FEE4E70220704790F800
:102AD8003C30012B1CD070B4012680F83C600223E6
:102AE80080F83D3002685568936825F070050C68D9
:102AF8002C4323F080054B682B4354600268936095
:102B080080F83D60002380F83C30184670BC704760
:102B18000220704738B504460268136923F440530D
:102B2800C1680B43136183680269134342691A43FE
:102B38000168CB6823F4B05323F00C031343CB6034
:102B48000268536923F4407381690B435361026837
:102B5800214B9A421FD0FFF751FD00EB800000EB9C
:102B6800800063689B00B0FBF3F01C4DA5FB0032AE
:102B78005109642202FB110213013233A5FB03231E
:102B88005B0903F0F00202EB011203F00F03216866
:102B980013448B6038BDFFF741FD00EB800000EB6C
:102BA800800063689B00B0FBF3F00C4DA5FB00327E
:102BB8005109642202FB110213013233A5FB0323DE
:102BC8005B0903F0F00202EB011203F00F03216826
:102BD80013448B60DEE700BF003801401F85EB51CE
:102BE8002DE9F04105460F4616469846069C2B6887
:102BF8001B6837EA03030CBF01230023B3421DD12E
:102C0800B4F1FF3FF3D02CB1FEF72CFBA0EB08008A
:102C1800A042ECD92A68D36823F4D073D3602A6819
:102C2800536923F001035361202385F8393085F86F
:102C38003A30002385F83830032000E00020BDE852
:102C4800F08158B310B5044690F839300BB32423FB
:102C580084F839302268D36823F40053D3602046BF
:102C6800FFF758FF2268136923F490431361226821
:102C7800536923F02A0353612268D36843F400534D
:102C8800D3600020E063202384F8393084F83A3098
:102C980010BD80F8383001F06DFBD8E7012070478F
:102CA8002DE9F04182B01E4690F83930DBB2202B76
:102CB80055D104460D469046002955D0002A55D0D6
:102CC80090F83830012B53D0012380F83830002396
:102CD800C363212380F83930FEF7C4FA0746A4F805
:102CE8002480A4F8268010E000963B46002280212C
:102CF8002046FFF775FF00283CD12B882268C3F3D4
:102D0800080353602369C3B90235E38C9BB2B3B19E
:102D1800E38C013B9BB2E384A368B3F5805FE3D007
:102D280000963B46002280212046FFF759FF18BB3A
:102D38002A7823685A600135E7E70135E5E7009608
:102D48003B46002240212046FFF74AFF0346A8B928
:102D5800202284F83920002284F8382000E0022359
:102D6800184602B0BDE8F0810123F9E70123F7E72F
:102D78000223F5E70323F3E70323F1E70323EFE750
:102D880000B585B000230193029303931048114ABC
:102D980002608360037303754FF46022C26143606D
:102DA80001230361FEF7F4FB60B901230193029349
:102DB8000023039301A90648FEF772FA28B905B063
:102DC8005DF804FB01F0D0F9EFE701F0CDF9F6E783
:102DD800180200200024014000B587B000230293A8
:102DE8000393049305930268114B9A4202D007B0EB
:102DF8005DF804FB03F56C439A6942F400729A612A
:102E08009A6902F400720092009A9A6942F00402E8
:102E18009A619B6903F004030193019B02230293C7
:102E28000323039302A90348FEF708FFDFE700BF67
:102E3800002401400008014000B583B00E4B5A69D8
:102E480042F001025A615B6903F001030193019B9F
:102E5800002211460F20FEF7D7FC0F20FEF708FDD1
:102E6800002211461020FEF7CFFC1020FEF700FDCF
:102E780003B05DF804FB00BF00100240F0B58BB052
:102E880000250695079508950995344B9A6942F0EF
:102E980040029A619A6902F040020192019A9A6985
:102EA80042F010029A619A6902F010020292029AA4
:102EB8009A6942F004029A619A6902F00402039244
:102EC800039A9A6942F008029A619A6902F0080224
:102ED8000492049A9A6942F020029A619B6903F06D
:102EE80020030593059B1E4F01224FF4804138466D
:102EF800FEF79EFF4FF6FF7606960324079406A971
:102F08001848FEF79BFE0696079406A91648FEF792
:102F180095FE49F6F0130693079406A91348FEF7A1
:102F28008DFE4BF63F730693079406A93846FEF7C5
:102F380085FE4FF4804306930123079308950223E7
:102F4800099306A93846FEF779FE0696079406A95E
:102F58000748FEF773FE0BB0F0BD00BF001002403B
:102F6800000C014000180140001001400008014019
:102F78000014014008B50B480B4B03600B4B436032
:102F880000238360C3604FF4804202614361836120
:102F9800C3610362FEF752FF00B908BD01F0E4F80F
:102FA800FBE700BF4802002000540040A086010053
:102FB80010B586B000230293039304930593026827
:102FC800114B9A4201D006B010BD104CA36943F0D2
:102FD8000803A361A36903F008030093009BC023BF
:102FE8000293122303930323059302A90848FEF7CB
:102FF80025FEE36943F40013E361E36903F4001376
:103008000193019BDFE700BF00540040001002401D
:10301800000C014030B597B000240E940F94119421
:1030280012940794089409940A940B9401940294B6
:10303800039404940594069401220C924FF480336F
:103048000D9310920225139514934FF4E0131593E2
:103058000CA8FEF7D9FF0F230793089509944FF49E
:1030680080630A930B94294607A8FFF70DFA019588
:103078004FF40043039301A8FFF7E0FA17B030BDFF
:1030880038B5C0F57F40FA3084B2084D2846FFF7BE
:1030980018FC2A68546201E0546AA4B24FF6F97326
:1030A8009C42F9D90148FFF71EFC38BD9C0200205C
:1030B8002DE9F04F9FB0E34C1AAD94E80F0007C517
:1030C80025F8023B1B0C2B7017AB04F1100207CA42
:1030D80003C31A700CAD04F11C060FCE0FC50FCE3A
:1030E8000FC596E8070003C52A7001AD48340FCC18
:1030F8000FC50FCC0FC594E8070003C525F8022BB0
:10310800120C2A7000248DF87240CF4D4FF6FF73D1
:103118000F221AA92846FFF7C3FD4FF6FF7329228D
:103128000CA92846FFF7BCFD1420FEF7A1F819E00A
:10313800C64BA3FB04239B088DF87230C24D4FF693
:10314800FF730F221AA92846FFF7AAFD4FF6FF734F
:103158002B2201A92846FFF7A3FD1420FEF788F8C3
:103168000134E4B2622C2AD89DF829300133DBB24D
:103178008DF82930392BDBD930238DF82930B34B22
:10318800A3FB0423DB0831338DF82830392BCFD942
:1031980030238DF82830AE4BA3FB04235B09313371
:1031A8008DF82730CD238DF81830EA238DF81930A3
:1031B800B3238DF81A30C9238DF81B30B8E74FF0C8
:1031C800BC0B8DF837B04FF0D70A8DF838A04FF008
:1031D800C8098DF839904FF0A9088DF83A80B427BE
:1031E8008DF83B70AB268DF83C606FF047038DF887
:1031F8003D30D0248DF83E40C6258DF83F506FF005
:1032080008028DF840208DF841506FF00B018DF8C1
:1032180042106FF049008DF843006FF0500C8DF8A4
:1032280044C06FF0290E8DF845E08DF846404FF602
:10323800FF7329220CA98448FFF732FD01238DF87A
:103248000C308DF80DB08DF80EA08DF80F908DF81C
:1032580010808DF811708DF812606FF047038DF8AB
:1032680013308DF814408DF815506FF008028DF862
:1032780016208DF817506FF00B018DF818106FF0AD
:1032880049008DF819006FF0500C8DF81AC06FF0D6
:10329800290E8DF81BE08DF81C4020238DF827306F
:1032A8008DF8283031238DF8293000241AE0674B37
:1032B800A3FB04239B0814338DF87230624D4FF63C
:1032C800FF730F221AA92846FFF7EAFC4FF6FF738F
:1032D8002B2201A92846FFF7E3FC1420FDF7C8FFBD
:1032E8000134E4B2622C2AD89DF829300133DBB2CC
:1032F8008DF82930392BDAD930238DF82930534B02
:10330800A3FB0423DB0831338DF82830392BCED9C1
:1033180030238DF828304E4BA3FB04235B0931334F
:103328008DF82730CD238DF81B30EA238DF81C301B
:10333800B3238DF81D30C9238DF81E30B7E74FF041
:10334800540B8DF837B04FF0560A8DF838A04FF06F
:103358004F098DF839904FF043088DF83A80B4271B
:103368008DF83B706FF054038DF83C306FF04702D6
:103378008DF83D20D0258DF83E50C6268DF83F604B
:103388006FF008018DF840108DF841606FF00B0068
:103398008DF842006FF049048DF843406FF0500CEF
:1033A8008DF844C06FF0290E8DF845E08DF8465031
:1033B80020248DF81D408DF81E404FF6FF732922FA
:1033C8000CA92148FFF76CFC02238DF80C308DF80E
:1033D8000DB08DF80EA08DF80F908DF810808DF837
:1033E80011706FF054038DF812306FF047028DF8AA
:1033F80013208DF814508DF815606FF008018DF8C2
:1034080016108DF817606FF00B008DF818006FF02C
:1034180049038DF819306FF0500C8DF81AC06FF011
:10342800290E8DF81BE08DF81C508DF81D408DF885
:103438001E408DF827408DF8284031238DF829301B
:10344800002422E0D85F000864030020CDCCCCCC57
:103458001F85EB51CD4BA3FB04239B0828338DF824
:103468007230CB4D4FF6FF730F221AA92846FFF78B
:1034780017FC4FF6FF732B2201A92846FFF710FC13
:103488001420FDF7F5FE0134E4B2622C2AD89DF829
:1034980029300133DBB28DF82930392BDAD93023C2
:1034A8008DF82930B94BA3FB0423DB0831338DF8A1
:1034B8002830392BCED930238DF82830B54BA3FBD3
:1034C80004235B0931338DF82730CD238DF81B3069
:1034D800EA238DF81C30B3238DF81D30C9238DF8ED
:1034E8001E30B7E74FF0650B8DF837B04FF0430A41
:1034F8008DF838A04FF04F098DF839904FF0320809
:103508008DF83A80B4278DF83B706FF054038DF82E
:103518003C306FF047028DF83D20D0258DF83E50A5
:10352800C6268DF83F606FF008018DF840108DF8C1
:1035380041606FF00B008DF842006FF049048DF880
:1035480043406FF0500C8DF844C06FF0290E8DF891
:1035580045E08DF8465020248DF81D408DF81E401A
:103568004FF6FF7329220CA98948FFF799FB03231B
:103578008DF80C308DF80DB08DF80EA08DF80F90E9
:103588008DF810808DF811706FF054038DF812309B
:103598006FF047028DF813208DF814508DF81560E0
:1035A8006FF008018DF816108DF817606FF00B009A
:1035B8008DF818006FF049038DF819306FF0500C32
:1035C8008DF81AC06FF0290E8DF81BE08DF81C508D
:1035D8008DF81D408DF81E408DF827408DF8284045
:1035E80031238DF8293000241AE0684BA3FB04230B
:1035F8009B083C338DF87230654D4FF6FF730F22F0
:103608001AA92846FFF74CFB4FF6FF732B2201A996
:103618002846FFF745FB1420FDF72AFE0134E4B2E3
:10362800622C2AD89DF829300133DBB28DF8293075
:10363800392BDAD930238DF82930544BA3FB0423D6
:10364800DB0831338DF82830392BCED930238DF86B
:103658002830504BA3FB04235B0931338DF8273006
:10366800CD238DF81B30EA238DF81C30B3238DF859
:103678001D30C9238DF81E30B7E74FF0500B8DF879
:1036880037B04FF04D0A8DF838A04FF032098DF859
:1036980039904FF02E088DF83A8035278DF83B7019
:1036A8006FF04B038DF83C306FF054028DF83D20DD
:1036B8006FF047018DF83E10D0258DF83F50C62693
:1036C8008DF840606FF008008DF841008DF8426079
:1036D8006FF00B048DF843406FF0490C8DF844C02F
:1036E8006FF0500E8DF845E06FF029048DF84640D4
:1036F8008DF8475020248DF81D408DF81E404FF658
:10370800FF7329220CA92248FFF7CAFA04238DF86F
:103718000C308DF80DB08DF80EA08DF80F908DF847
:1037280010808DF811706FF04B038DF812306FF028
:1037380054028DF813206FF047018DF814108DF89E
:1037480015508DF816606FF008008DF817008DF889
:1037580018606FF00B038DF819306FF0490C8DF875
:103768001AC06FF0500E8DF81BE06FF029038DF82A
:103778001C308DF81D508DF81E408DF827408DF8AF
:10378800284031238DF82930002420E0CDCCCCCC42
:10379800640300201F85EB51304BA3FB04239B08D7
:1037A80050338DF872302E4D4FF6FF730F221AA941
:1037B8002846FFF775FA4FF6FF732B2201A9284612
:1037C800FFF76EFA1420FDF753FD0134E4B2622CC2
:1037D8002AD89DF829300133DBB28DF82930392BEE
:1037E800DAD930238DF829301C4BA3FB0423DB08DE
:1037F80031338DF82830392BCED930238DF8283045
:10380800184BA3FB04235B0931338DF82730CD23F4
:103818008DF81C30EA238DF81D30B3238DF81E3047
:10382800C9238DF81F30B7E764238DF872300C4C2C
:103838004FF6FF730F221AA92046FFF731FA4FF40B
:10384800FA70FDF715FD4FF6FF73092217A92046F8
:10385800FFF726FA1FB0BDE8F08F00BFCDCCCCCC67
:10386800640300201F85EB51F8B52D4E00224FF45C
:1038780080413046FEF7DCFA2A4C2088FFF700FC2E
:10388800294D2846FDF7E8FDA088FFF7F9FB2846F3
:10389800FDF702FD07462846FDF710FF01224FF409
:1038A80080413046FEF7C4FAA068FDF7ABFB80B252
:1038B800FFF7E6FB3846FCF7F5FD13A3D3E9002331
:1038C800FCF76AFE12A3D3E90023FCF765FE12A3F6
:1038D800D3E90023FCF78AFF0022144BFCF7A4FC71
:1038E800FDF76CF804464FF08041FDF781FB08B105
:1038F8004FF0804400212046FDF75CFB08B92046C4
:10390800F8BD0024FBE700BFC3F5285C8FC2C53FA4
:103918000000000000C8A9400000000000FEAF4001
:10392800000C014008000020180200200000594047
:10393800F8B52D4E00224FF480413046FEF778FA54
:103948002A4C2088FFF79CFB294D2846FDF784FD6B
:10395800A088FFF795FB2846FDF79EFC07462846FA
:10396800FDF7ACFE01224FF480413046FEF760FAC5
:10397800A068FDF747FB80B2FFF782FB3846FCF7EB
:1039880091FD13A3D3E90023FCF706FE12A3D3E9A4
:103998000023FCF701FE12A3D3E90023FCF726FF5E
:1039A8000022144BFCF740FCFDF708F804461249C6
:1039B800FDF71EFB00B1104C00212046FDF7FAFA76
:1039C80008B92046F8BD0024FBE700BFAFF300802C
:1039D800C3F5285C8FC2C53F0000000000C8A9409D
:1039E8000000000000FEAF40000C0140080000206D
:1039F800180200200000594000007A44000000002E
:103A0800F8B52B4E00224FF480413046FEF710FAED
:103A1800284C2088FFF734FB274D2846FDF71CFD6E
:103A2800A088FFF72DFB2846FDF736FC07462846F9
:103A3800FDF744FE01224FF480413046FEF7F8F9C5
:103A4800A068FDF7DFFA80B2FFF71AFB3846FCF7EB
:103A580029FD11A3D3E90023FCF79EFD10A3D3E9A8
:103A68000023FCF799FD10A3D3E90023FCF7BEFE61
:103A78000022124BFCF7D8FBFCF7A0FF04461049C4
:103A8800FDF7B6FA00B10E4C0E492046FDF792FA42
:103A980000B10C4C2046F8BDC3F5285C8FC2C53F69
:103AA8000000000000C8A9400000000000FEAF4070
:103AB800000C0140080000201802002000005940B6
:103AC80000409C450000C843F8B52D4E00224FF435
:103AD80080413046FEF7ACF92A4C2088FFF7D0FA2F
:103AE800294D2846FDF7B8FCA088FFF7C9FA2846F3
:103AF800FDF7D2FB07462846FDF7E0FD01224FF40B
:103B080080413046FEF794F9A068FDF77BFA80B251
:103B1800FFF7B6FA3846FCF7C5FC13A3D3E9002330
:103B2800FCF73AFD12A3D3E90023FCF735FD12A3F5
:103B3800D3E90023FCF75AFE0022144BFCF774FB70
:103B4800FCF73CFF04461249FDF752FA00B1104C4D
:103B580000212046FDF72EFA08B92046F8BD0024BA
:103B6800FBE700BFAFF30080C3F5285C8FC2C53FF9
:103B78000000000000C8A9400000000000FEAF409F
:103B8800000C0140080000201802002000005940E5
:103B98000000FA4330B585B001AC164B93E8070036
:103BA80084E80700144D4FF6FF730C22214628467F
:103BB800FFF776F816238DF80A304FF6FF730C22BC
:103BC80021462846FFF76CF808238DF80A304FF68F
:103BD800FF730C2221462846FFF762F80C228DF865
:103BE8000A204FF6FF7321462846FFF759F805B01B
:103BF80030BD00BF4C6000086403002030B585B0BC
:103C080001AC164B93E8070084E80700144D4FF603
:103C1800FF730C2221462846FFF742F816238DF839
:103C28000A304FF6FF730C2221462846FFF738F872
:103C380008238DF80A304FF6FF730C2221462846D8
:103C4800FFF72EF80C228DF80A204FF6FF73214655
:103C58002846FFF725F805B030BD00BF58600008BA
:103C68006403002010B4C31CCA5C0C5CCC540A5416
:103C7800831CCA5C01300C5CCC540A5410BC7047DD
:103C88002DE9F04389B00746344D04AC05F18C03A7
:103C98000FCB07C424F8023B1B0C23706C4605F1BC
:103CA8009C030FCB84E80F003846FDF7ABF9C5B28B
:103CB8002846FCF78DFF01463846FCF7D3FE8046C0
:103CC8002749FCF7D9FFFDF79DF9C6B22548A0FBA7
:103CD8000630C008FCF77CFF01464046FCF7C2FEF0
:103CE80081462149FCF7C8FFFDF78CF95FFA80F897
:103CF8001E48A0FB08304009FCF76AFF0146484609
:103D0800FCF7B0FE1A49FCF7B7FF1A49FCF7ACFEFE
:103D1800FDF778F98DF80B0008F130088DF80A8066
:103D280030368DF8096030358DF80750124D4FF652
:103D3800FF73102221462846FEF7B2FFCDF8177010
:103D480004A90720FFF78EFF4FF6FF730F2204A97F
:103D58002846FEF7A5FF09B0BDE8F083D85F000844
:103D680000002041CDCCCCCC0000C8421F85EB51CF
:103D780000007A4400004042640300202DE9F0412D
:103D880088B00646424D04AC05F1AC030FCB07C41E
:103D980024F8023B1B0C23706C4605F1BC030FCBC7
:103DA80007C424F8023B1B0C23703A493046FDF740
:103DB80017F8FDF727F9C5B24FF47A7000FB05F044
:103DC800FCF706FF01463046FCF74CFE0446324934
:103DD800FDF706F8FDF716F9C7B2642000FB07F0F7
:103DE800FCF7F6FE01462046FCF73CFE80462B49D0
:103DF800FCF7F6FFFDF706F9C4B204EB840358009C
:103E0800FCF7E6FE01464046FCF72CFE2449FCF789
:103E18002BFEFDF7F7F88DF80A0030348DF80940CD
:103E280030378DF8087030358DF80750002301E0E1
:103E38000133DBB2022B13D89DF80720302AF7D1C3
:103E48009DF808208DF807209DF809208DF8082096
:103E58009DF80A208DF8092020228DF80A20E7E72E
:103E6800104C4FF6FF730F2269462046FEF718FFE5
:103E7800CDF8176004A90720FFF7F4FE4FF6FF738B
:103E88000F2204A92046FEF70BFF08B0BDE8F08119
:103E9800D85F000800007A440000C84200002041B2
:103EA80000004042640300202DE9F04188B0064636
:103EB800424D04AC05F1CC030FCB07C424F8023BF8
:103EC8001B0C23706C4605F1DC030FCB07C424F8E8
:103ED800023B1B0C23703A493046FCF781FFFDF783
:103EE80091F8C5B24FF47A7000FB05F0FCF770FE4C
:103EF80001463046FCF7B6FD04463249FCF770FF30
:103F0800FDF780F8C7B2642000FB07F0FCF760FEFD
:103F180001462046FCF7A6FD80462B49FCF760FFCA
:103F2800FDF770F8C4B204EB84035800FCF750FEA8
:103F380001464046FCF796FD2449FCF795FDFDF740
:103F480061F88DF80A0030348DF8094030378DF863
:103F5800087030358DF80750002301E00133DBB2DB
:103F6800022B13D89DF80720302AF7D19DF8082096
:103F78008DF807209DF809208DF808209DF80A2063
:103F88008DF8092020228DF80A20E7E7104C4FF61B
:103F9800FF730F2269462046FEF782FECDF81760B0
:103FA80004A90720FFF75EFE4FF6FF730F2204A94E
:103FB8002046FEF775FE08B0BDE8F081D85F00081E
:103FC80000007A440000C84200002041000040423E
:103FD80064030020F0B589B006463A4D04AC05F1FB
:103FE800EC030FCB07C424F8023B1B0C23706C4670
:103FF80005F1FC030FCB07C424F8023B1B0C23700C
:1040080031493046FCF7ECFEFCF7FCFFC5B26420F2
:1040180000FB05F0FCF7DCFD01463046FCF722FD0D
:1040280007462A49FCF7DCFEFCF7ECFFC4B204EBB8
:1040380084035800FCF7CCFD01463846FCF712FD16
:104048002349FCF711FDFCF7DDFF8DF8090020235B
:104058008DF80A3030348DF8084030358DF8075027
:10406800002301E00133DBB2012B13D89DF80720B0
:10407800302AF7D19DF808208DF807209DF80920EF
:104088008DF808209DF80A208DF8092020228DF847
:104098000A20E7E70F4C4FF6FF730F2269462046C8
:1040A800FEF7FEFDCDF8176004A90720FFF7DAFD3B
:1040B8004FF6FF730F2204A92046FEF7F1FD09B061
:1040C800F0BD00BFD85F00080000C84200002041D2
:1040D800000040426403002008B5FDF7A5F8FEF78C
:1040E80099FFFEF7CBFEFEF7A7FEFEF749FEFEF7A7
:1040F80041FF00F0BDF800F009F900F021F90122B4
:104108004FF480411648FDF793FE1648FDF7F4FA80
:10411800FFF774FDFFF7A8FBFFF7B2FDFFF708FCF8
:10412800FFF72CFEFFF76CFCFFF7BEFEFFF7CCFC99
:10413800FFF750FFFFF72EFDFEF7BAFFFFF794FBDE
:10414800FFF79EFDFFF7F4FBFFF718FEFFF758FC9B
:10415800FFF7AAFEFFF7B8FCFFF73CFFEEE700BF4A
:10416800000C0140180200207047000082B00E4B7E
:104178009A6942F001029A619A6902F0010200927A
:10418800009ADA6942F08052DA61DB6903F0805301
:104198000193019B054A536823F0E06343F00073E1
:1041A800536002B0704700BF001002400000014099
:1041B8007047FEE7FEE7FEE7FEE770477047704787
:1041C80008B5FDF743F808BD08B50248FDF7C0FB80
:1041D80008BD00BF2003002008B50248FDF7B8FB62
:1041E80008BD00BFDC02002008B503460B4A126870
:1041F80042B10A4A106803446A46934206D8074AFD
:10420800136008BD054A06491160F2E700F074F929
:104218000C2303604FF0FF30F3E700BF04020020D7
:10422800E80300200F4B1A6842F001021A6059682F
:104238000D4A0A405A601A6822F0847222F48032C9
:104248001A601A6822F480221A605A6822F4FE0260
:104258005A604FF41F029A60044B4FF000629A6054
:10426800704700BF001002400000FFF800ED00E0BA
:1042780000B587B00023029303930493059300933A
:1042880001931548154A0260472242608360012263
:10429800C260036180238361FEF788FB98B906A991
:1042A8004FF4805341F8103D0B48FEF7A3FB68B963
:1042B80000230093019369460748FEF708FC40B9BC
:1042C80007B05DF804FBFFF74FFFE8E7FFF74CFF87
:1042D800EEE7FFF749FFF3E79C02002000080040E3
:1042E8000268094B9A4200D0704782B003F5023346
:1042F800DA6942F00402DA61DB6903F0040301932E
:10430800019B02B0704700BF0008004008B50A488A
:104318000A4B03604FF4E133436000238360C360BA
:1043280003610C2242618361C361FEF78AFC00B914
:1043380008BDFFF719FFFBE76403002000380140C0
:1043480008B50A480A4B03604FF4E1334360002381
:104358008360C36003610C2242618361C361FEF71D
:1043680070FC00B908BDFFF7FFFEFBE7A4030020BF
:104378000044004070B588B00446002304930593B8
:10438800069307930368414A934204D0404A9342F4
:104398003FD008B070BD3F4B9A6942F480429A61A1
:1043A8009A6902F480420092009A9A6942F00402E3
:1043B8009A619B6903F004030193019B4FF4007316
:1043C80004930223059303230793334E04A930462D
:1043D800FDF734FC4FF4806304930025059506959A
:1043E80004A93046FDF72AFC2C482D4B0360456094
:1043F80085608023C360056145618561C561FDF7FE
:104408005BFA18B9254B63635C62C2E7FFF7ACFE41
:10441800F8E7204BDA6942F40032DA61DA6902F42B
:1044280000320292029A9A6942F004029A619B69E8
:1044380003F004030393039B0423049302230593CB
:1044480003230793144E04A93046FDF7F7FB08230E
:10445800049300250595069504A93046FDF7EEFB63
:104468001048114B0360456085608023C360056177
:1044780045618561C561FDF71FFA18B9094B63638A
:104488005C6286E7FFF770FEF8E700BF003801407E
:1044980000440040001002400008014020030020B2
:1044A80058000240DC0200206C000240002103E0BA
:1044B8000B4B5B58435004310A480B4B42189A4245
:1044C800F6D30A4A02E0002342F8043B084B9A421A
:1044D800F9D3FFF7A7FE00F015F8FFF7FDFD7047C9
:1044E8003063000800000020E8010020E8010020F7
:1044F800E8030020FEE70000014B1868704700BF82
:104508001800002070B500250C4E0D4CA41BA410FB
:10451800A54209D101F03CFD00250A4E0A4CA41B16
:10452800A410A54205D170BD56F82530984701352D
:10453800EEE756F8253098470135F2E7286300087A
:1045480028630008286300082C6300080346024417
:10455800934200D1704703F8011BF9E7002B2DE9BE
:10456800F0471E46BBBF03F100431E4600232D2320
:1045780088B0149FDDE9121A27F02007462F144649
:10458800109D0B7004D0452F00D10135022300E0A7
:10459800032307AA049206AACDE902A2CDE90035B1
:1045A8002246334600F0A8FB472F804602D1119BD4
:1045B800DB0726D5462F08EB050911D198F80030FE
:1045C800302B0AD10022002320463146FCF798FD03
:1045D80018B9C5F10105CAF80050DAF80030994455
:1045E8000022002320463146FCF78AFD38B93022E4
:1045F800079B4B4505D2591C07911A70F8E7CDF86F
:104608001C904046079B159AA3EB0803136008B05B
:10461800BDE8F087F7B50029B4BF2D232B23044646
:10462800B8BF4942092904F8022B437021DD0DF176
:1046380007031F460A2691FBF6F506FB1511092DFF
:1046480001F1300103F8011C03F1FF32294609DCAE
:104658003031023B02F8011CBB42224604D3101A37
:1046680003B0F0BD1346E6E713F8012B04F8012B5D
:10467800F2E7302319448370021DC170EFE7000090
:104688002DE9F04F91B00C461A9F93461E460546F9
:1046980001F0E6F8036818460993FCF7D3FC0023F9
:1046A8000E933B680A90073323F0070303F10802CF
:1046B80094F81880D4F800A03A60D3E90023C4E93C
:1046C8001223D4E9127929F000430B934FF0FF32FB
:1046D800A64B38460B99FCF745FD68BB4FF0FF32F7
:1046E800A24B38460B99FCF71FFD28BB002200237C
:1046F80038464946FCF70EFD10B12D2384F84330A7
:104708009B4F9C4BB8F1470F98BF1F4603234FF0B0
:10471800000923612AF00403236000965B460FAA70
:104728002146284600F0E2F9013040F090804FF031
:10473800FF3011B0BDE8F08F3A464B46384649463F
:10474800FCF710FD10B18C4F8C4BDBE763684AF423
:104758008062591C0DA80EA940D1062363604FF052
:10476800000C0DF13303CDE9012363682260CDE924
:10477800030800933A464B46CDE9051C2846FFF747
:10478800EDFE08F0DF03472B074609D10D9BD81C27
:1047980002DB6268934247DDA8F102085FFA88F8F5
:1047A800B8F1650F0D9924D80139424604F150003B
:1047B8000D91FFF72FFF0E9A81461318012A2361E6
:1047C80002DC2268D10701D5013323619DF833301B
:1047D800002BA2D02D2384F843309EE7B8F1670F51
:1047E80000F06E81B8F1470FB9D1002BB7D1012382
:1047F800B4E7B8F1660F19D1002963680CDD2161AF
:1048080013B92268D20702D501330B4423610D9BEB
:104818004FF00009A365D9E713B92268D00701D57D
:104828000233F3E70123F1E74FF06708DDE90D32C2
:10483800934205DB22682361D107E8D50133E5E718
:10484800002BCCBF0123C3F102031344DEE7236826
:104858005A0507D423693A4659462846B0470130D5
:1048680029D164E7B8F1650F40F2D780D4E9120185
:1048780000220023FCF744FC88B30123404A594630
:104888002846B04701303FF452AFDDE90D239A4284
:1048980002DB2368D8070ED5DDE9092359462846E7
:1048A800B04701303FF443AF002704F11A080E9BCC
:1048B800013BBB4209DC23689F0700F1FD80E068EB
:1048C8000F9B9842B8BF184633E701234246594622
:1048D8002846B04701303FF42AAF0137E7E70D9B80
:1048E800002B2BDC0123264A59462846B0470130C5
:1048F8003FF41DAF0D9B23B90E9B13B92368D9074D
:10490800D9D5DDE9092359462846B04701303FF497
:104918000EAF4FF0000804F11A090D9B5B424345A6
:1049280001DC0E9B97E701234A4659462846B047C3
:1049380001303FF4FCAE08F10108EEE70E9AA36DD2
:104948009A42A8BF1A46002A904607DD13465946E0
:104958003A462846B04701303FF4E9AE04F11A035D
:104968004FF0000A28EAE8780B9315E0FFFFEF7F85
:1049780000610008FC600008086100080461000884
:104988000C61000801230B9A59462846B0470130AC
:104998003FF4CDAE0AF1010AD4F85890A9EB080308
:1049A8005345EFDCDDE90D239A424F4414DB2368BD
:1049B800DA0711D40E9B0D99A3EB0902A3EB0109A9
:1049C8009145A8BF9146B9F1000F0DDC002729EAEF
:1049D800E97904F11A0818E0DDE90923594628465F
:1049E800B0470130E6D1A2E64B463A46594628463A
:1049F800B0470130EAD19AE6012342465946284693
:104A0800B04701303FF493AE0137DDE90D239B1A1F
:104A1800A3EB0903BB42EFDC4DE70E9A012A01DC48
:104A2800DB0738D501233A4659462846B0470130B6
:104A38003FF47DAEDDE9092359462846B0470130E9
:104A480007F101073FF473AED4E912010E9B00226F
:104A580003F1FF380023FCF753FBC0B943463A463D
:104A680059462846B04701300DD160E60123424639
:104A780059462846B04701303FF459AE01370E9BDE
:104A8800013BBB42F2DC4B4604F15002E4E600274E
:104A980004F11A08F3E70123E1E7012342465946E6
:104AA8002846B04701303FF442AE0137E3680F9A19
:104AB8009B1ABB42F1DC02E7002704F11908F5E76D
:104AC800002B3FF494AE4FF0000CCDE9051C0DF11E
:104AD80033012260CDE90308CDE9012100933A466C
:104AE8004B462846FFF73AFD07464FE62DE9F047C3
:104AF80091461F468A680B6906469342B8BF13461B
:104B0800C9F8003091F843200C46DDF8208012B136
:104B18000133C9F800302368990642BFD9F800303C
:104B28000233C9F80030256815F0060507D104F1ED
:104B3800190AE368D9F800209B1AAB4229DC94F8DB
:104B480043302268003318BF012392062ED404F1A3
:104B5800430239463046C047013021D02368E56812
:104B680003F00603042B18BF0025D9F800204FF0E6
:104B7800000908BFAD1AA368226908BF25EAE575D0
:104B88009342C4BF9B1AED181A344D451AD1002020
:104B980008E00123524639463046C047013003D168
:104BA8004FF0FF30BDE8F0870135C2E73020E1184B
:104BB80081F843005A1C94F845102244023382F8C5
:104BC8004310C4E70123224639463046C047013026
:104BD800E6D009F10109D8E72DE9F74F03690C6917
:104BE8008046A342C0F28480013C01F1140700F121
:104BF800140657F8245056F824000135B0FBF5F593
:104C08004FEA840C06EB0C0307EB0C0901939DB3E8
:104C18004FF0000A3846B646D34650F8042B93B2F4
:104C280005FB03A3120C4FEA134A05FB02A29BB231
:104C3800ABEB0303DEF800B04FEA124A1FFA8BFB16
:104C48005B441FFA82FBDEF800208145CBEB124261
:104C580002EB23429BB243EA02434FEA224B4EF84F
:104C6800043BDAD256F80C3033B9019B043B9E4220
:104C78001A4631D3C8F81040404601F027F80028FA
:104C880026DB30464FF0000C013557F8041BD0F8EE
:104C980000E08BB2ACEB03031FFA8EF213440A0C4C
:104CA800C2EB1E4202EB23429BB243EA0243B945E0
:104CB8004FEA224C40F8043BE7D256F8242006EB92
:104CC80084032AB9043B9E421A460BD3C8F8104005
:104CD800284603B0BDE8F08F1268043B002AC9D10A
:104CE800013CC4E71268043B002AEFD1013CEAE723
:104CF8000020EEE7000000002DE9F04F16461F46A1
:104D0800456A95B00446DDF88480CDE902673DB96F
:104D1800102000F0B3FD6062C0E901550560C56070
:104D2800636A196851B15A68012393404A608B60DD
:104D3800204600F0EAFD0022636A1A603B1EAFBFFE
:104D48000023012223F000430393ACBFC8F80030CE
:104D5800C8F80020AE4BDDF80C8033EA08031BD1FD
:104D680042F20F73209A1360029B23B9C8F3130011
:104D7800002800F04585229B53B9A64B21E0A64B9D
:104D880006930833229A1360069815B0BDE8F08F91
:104D9800A04B06930333F5E7DDE902670022002301
:104DA80030463946FCF7ACF9824660B10123209AB7
:104DB8001360229B002B00F02085984B229A1360E9
:104DC800013B0693E0E712AB019313AB0093324625
:104DD8003B46204600F0F2FFC8F30A558346002DF3
:104DE8007DD0B046C7F3130343F07F5949F4401907
:104DF800A5F2FF35CDF840A00022894B4046494630
:104E0800FBF712FA7CA3D3E90023FBF7C5FB7CA3CD
:104E1800D3E90023FBF70AFA064628460F46FBF7B4
:104E280051FB79A3D3E90023FBF7B6FB02460B46F7
:104E380030463946FBF7FAF906460F46FCF7A8F95B
:104E480000228246002330463946FCF763F948B110
:104E58005046FBF737FB32463B46FCF751F908B999
:104E68000AF1FF3ABAF1160F5AD8DDE902236D4963
:104E780001EBCA01D1E90001FCF76AF9002851D019
:104E880000230AF1FF3A0D93129B5D1B6B1E0793DB
:104E980043BF0023C5F1010907934FF00009BAF198
:104EA800000F41DB079BCDF830A053440793002344
:104EB80008931E9B092B00F28F80052BC4BF043B6F
:104EC8001E931E9BC8BF0025A3F10203D8BF01256E
:104ED800032B00F28D80DFE803F07B7D2F6FDDE987
:104EE80012531D4405F23240202813DDC0F1400062
:104EF800029B08FA00F805F2124023FA00F048EA8B
:104F08000000FBF7CFFA01238046A1F1F879013DB3
:104F1800109371E7029BC0F1200003FA00F0F0E75C
:104F28000123B0E70D90AFE7CAF10003089300230F
:104F3800A9EB0A090C93BCE7012309931F9B002BDB
:104F480074DD984604930022666A7260042202F1B6
:104F58001400984271686ED9204600F0A2FC636A7A
:104F680030601B68B8F10E0F069300F2ED80002D3B
:104F780000F0EA80DDE90223BAF1000FCDE90E2343
:104F880077DD284A0AF00F034FEA2A1602EBC3031B
:104F9800F006D3E90023CDE90A2368D5DDE90E013F
:104FA800214B0325D3E90823FBF720FCCDE90201B7
:104FB80006F00F061C4F4FE0012309931F9B534433
:104FC80003F1010804934346012BB8BF0123BAE754
:104FD8000023B2E70023F0E70125002309951E937B
:104FE8004FF0FF3300220493984612231F92AAE73A
:104FF80001230993F4E700BF61436F63A787D23F9A
:10500800B3C8608B288AC63FFB799F501344D33FAF
:105018000000F07F176100080E6100080D610008AC
:105028000000F83F4861000820610008012304934C
:1050380098461A46DAE701317160520087E7F107AE
:1050480008D5DDE90A01D7E90023FBF7A5FACDE980
:105058000A01013576100837002EF0D1DDE90A2360
:10506800DDE90201FBF7C2FBCDE902011BE00225E5
:10507800A0E700F0A480DDE90E01CAF10006A04B0C
:1050880006F00F0203EBC203D3E90023FBF784FA0F
:1050980002250023CDE902019A4F3611002E40F077
:1050A8008380002BE0D10D9B002B00F08A80DDE986
:1050B8000223CDE90A23DDE90A010022924BFCF71D
:1050C80029F800287DD0B8F1000F7AD0049B002B76
:1050D80036DDDDE90A0100228C4BFBF75DFACDE9EC
:1050E8000201049E0AF1FF3701352846FBF7EAF969
:1050F800DDE90223FBF750FA0022854BFBF796F80F
:10510800A1F15075CDE90A010B95002E5CD1DDE9BE
:10511800020100227F4BFBF787F80A9A2B46CDE95C
:105128000201FCF715F8002840F08182DDE9020150
:105138000A9A05F10043FBF7EDFF002840F075825D
:10514800DDE90E23CDE90223139B002BC0F24B812E
:10515800BAF10E0F00F34781694B03EBCA03D3E999
:105168000023CDE904231F9B002B80F2D780B8F1E0
:10517800000F00F3D38040F05782DDE904010022DC
:10518800644BFBF709FADDE90223FBF7D7FF464634
:105198004746002840F02D82069B069A5D1C312365
:1051A8000AF1010A137028E2F20705D5D7E90023AE
:1051B800FBF7F2F901230135761008376EE702256F
:1051C80071E75746464690E74D4B03EBC60353E954
:1051D8000201099B002B48D002460B4600204E498D
:1051E800FBF704FBDDE90A23FBF71EF8CDE90A010A
:1051F800069DDDE90201FBF7CBFF1190FBF762F991
:1052080002460B46DDE90201FBF70EF8119BCDE9DA
:105218000201303305F8013BDDE90A23FBF77AFF89
:10522800002863D1DDE9022300203749FAF7FCFFA3
:10523800DDE90A23FBF76EFF002840F0B580069BE6
:10524800EB1A9E427FF77CAFDDE90A0100222F4B63
:10525800FBF7A2F90022CDE90A01DDE902012B4B97
:10526800FBF79AF9CDE90201C3E7DDE90A23FBF769
:1052780093F9069BCDE90A019D191E46DDE9020155
:10528800FBF786FF1190FBF71DF902460B46DDE997
:105298000201FAF7C9FF119BCDE90201303306F884
:1052A800013BAE424FF0000224D1DDE90A011A4B5E
:1052B800FAF7BCFF02460B46DDE90201FBF748FF9F
:1052C800002871D1DDE90A2300201349FAF7ACFF61
:1052D80002460B46DDE90201FBF71CFF00283FF4FC
:1052E8002FAF15F8013C6A1E302B01D0BA464AE0B0
:1052F8001546F6E7054BFBF74FF9CDE90201BDE787
:1053080048610008206100080000F03F00002440C8
:1053180000001C40000014400000E03F069DDDE94D
:105328000267DDE9042330463946FBF75FFAFBF7ED
:105338002FFF8146FBF7C6F8DDE90423FBF72CF9BC
:1053480002460B4630463946FAF76EFF09F1300639
:1053580005F8016B069E0246AE1BB0450B4635D1DB
:10536800FAF764FFDDE9042306460F46FBF7F0FE73
:10537800C8B9DDE9042330463946FBF7C1FE10B150
:1053880019F0010F0FD15946204600F0BEFA00234C
:10539800209A2B700AF101031360229B002B3FF423
:1053A800F3AC1D60F0E4574615F8012C6B1E392A42
:1053B80006D1069A9A4207D1302313701346013753
:1053C8001A7801321A7091E71D46EDE70022994BD1
:1053D800FBF7E2F80022002306460F46FBF790FE93
:1053E80000289ED0CFE7099A002A00F088801E9AEC
:1053F800012A6DDC109A002A66D003F233434D4629
:10540800089E079A01211A4420469944079200F001
:105418001CFB0746002D0BDD079B002B08DDAB426C
:10542800A8BF2B46079AA9EB0309ED1AD31A0793CD
:10543800089BEBB1099B002B65D08EB139463246EB
:10544800204600F0A1FB5A4601460746204600F0D8
:1054580005FB59460A90204600F057FA0A9B9B46DE
:10546800089B9A1B04D05946204600F08DFB8346C2
:105478000121204600F0E9FA0C9B0646002B00F0BB
:10548800C6811A460146204600F07EFB1E9B064652
:10549800012B3EDC029B002B37D1039BC3F3130384
:1054A800002B34D1039B23F000431B0D1B052BB1AC
:1054B800079B09F1010901330793012308930C9B0A
:1054C800002B28D101202EE0129BC3F1360396E76A
:1054D800089B08F1FF36B342B7BF089B9E1BF21A20
:1054E8000C9BBFBF08969B180C930026B8F1000FC1
:1054F800B9BFA9EB080500234D46434681E7089E3E
:105508004D46099F86E7089AADE70023D6E7029B38
:10551800D4E700230893336906EB8303186900F086
:1055280046FAC0F12000079B184410F01F0047D02E
:10553800C0F12003042B3BDD079BC0F11C00814414
:10554800054403440793B9F1000F05DD59464A465F
:10555800204600F067FB8346079B002B05DD31469C
:105568001A46204600F05EFB06460D9B53B33146B3
:10557800584600F0ABFB002824DA002359460A22DB
:10558800204600F0D9F9099B0AF1FF3A8346002B1F
:1055980000F04481002339460A22204600F0CCF965
:1055A800049B0746002B4DDC1E9B022B4ADD11E0B5
:1055B800C9D0079A1C331A4499441D441346C1E7BD
:1055C8000346F6E7B8F1000F36DC1E9B022B33DDED
:1055D800CDF81080049B63B931460522204600F0BF
:1055E800ABF901460646584600F070FB00283FF725
:1055F800D3AD1F9B069D6FEA030A4FF000093146A1
:10560800204600F082F9002F3FF4BDAEB9F1000F3B
:1056180005D0B94503D04946204600F076F9394609
:10562800204600F072F9AEE600263746E1E7BA46B2
:105638003746B1E500002440099BCDF81080002BC7
:1056480000F0F380002D05DD39462A46204600F09B
:10565800E9FA0746089B002B4CD07968204600F0F1
:1056680020F905463A6907F10C01023292000C3024
:1056780000F00CF901222946204600F0D3FAB94679
:105688000746069B0793029B03F0010308933146E4
:105698005846FFF7A1FA4946054600F13008584632
:1056A80000F014FB3A4602903146204600F028FBF1
:1056B800C368024603BB01460990584600F006FB42
:1056C8000346099A11462046099300F01EF9099BE2
:1056D800A3B91E9A92B9089A82B9B8F1390F29D09C
:1056E800029B002B01DD05F13108079B5D1C83F847
:1056F800008084E73846C2E70123E3E7029A002ADC
:1057080004DB23D11E9A0ABB089AFAB9002BECDDF8
:1057180059460122204600F085FA3146834600F0BA
:10572800D5FA002803DCE0D118F0010FDDD0B8F17C
:10573800390FD8D1079B079A5D1C3923137015F8C8
:10574800013C6A1E392B4DD0013352E0079A002BD9
:1057580002F1010506DDB8F1390FEBD008F10108B7
:10576800079BC4E7069B049AEB1A934205F8018C41
:1057780021D0594600230A22204600F0DDF8B94519
:1057880083464FF000034FF00A024946204605D1F0
:1057980000F0D2F881460746079578E700F0CCF884
:1057A8003946814600230A22204600F0C5F80746FC
:1057B800F2E74FF0000959460122204600F032FA7C
:1057C8003146834600F082FA0028B8DC02D118F08E
:1057D800010FB4D115F8013C6A1E302B7FF40FAFCE
:1057E8001546F7E7069B934205D13123069A0AF13D
:1057F800010A137003E71546A1E7174BFFF7E1BA53
:10580800229B002B7FF4BBAA144BFFF7DABA1E9B2E
:10581800012B7FF73FAE0C9B089353E6049B002BAC
:1058280003DC1E9B022B3FF7D5AE069D314658463A
:10583800FFF7D2F9069B00F1300805F8018B049AAE
:10584800EB1A9A42B5DD594600230A22204600F099
:1058580073F88346EAE700BF0C6100080E61000890
:10586800044B1B68186A044B002808BF1846F03020
:10587800704700BF180000207C000020024B014642
:10588800186800F0F9BA00BF1800002010B5431ED0
:105898000A44914200D110BD11F8014B03F8014FA1
:1058A800F7E770B5456A04460E463DB91020FFF784
:1058B800E5FF6062C0E901550560C560656AEB688F
:1058C80083B1636ADB6853F82600B8B9012101FA8D
:1058D80006F56A1D9200204600F0BFFA60B1C0E9E3
:1058E80001650EE021220421204600F0B6FA636A21
:1058F800E860DB68002BE4D1002070BD026843F843
:1059080026200023C0E90333F7E770B5446A06464A
:105918000D463CB91020FFF7B1FF7062C0E90144A1
:105928000460C4603DB1736A6A68DB6853F822108A
:10593800296043F8225070BD2DE9F0411F46064604
:105948000C4600230D6901F1140CDCF8000001334A
:1059580081B202FB0171000C0F0C02FB007089B2CE
:1059680001EB00419D424FEA10474CF8041BECDC68
:10597800D7B1A368AB4212DC616830460131FFF74A
:1059880090FF8046226904F10C01023292000C302B
:10599800FFF77CFF21463046FFF7B7FF444604EB8C
:1059A800850301355F6125612046BDE8F081020C61
:1059B80012040346B2B90304102013F07F4F04BF4A
:1059C8001B02083013F0704F04BF1B01043013F0A2
:1059D800404F04BF9B000230002B06DB5B0003D561
:1059E800013070470020E8E720207047036801462F
:1059F80013F007020BD0DA0723D4980749BF5B08D6
:105A08009B0801200B605CBF0B600220704798B2B6
:105A1800A8B910201B0C13F0FF0F04BF1B0A083095
:105A28001A0704BF1B0904309A0704BF9B080230F9
:105A3800DA0702D45B0806D001300B6070471046C5
:105A4800E9E7002070472020704710B50C46012177
:105A5800FFF727FF01224461026110BD2DE9F74FCE
:105A680014460A69236988469A42BEBF0B46A04677
:105A78001C46D8F81070D4F81090D8F80830D8F828
:105A8800041007EB0906B342B8BF0131FFF709FF5D
:105A980000F114052B46002205EB860E734516D33C
:105AA80004F1140208F1140102EB890301EB8707E2
:105AB8000093009B019293420CD8002E03DD5EF800
:105AC800043D002B5DD0066103B0BDE8F08F43F8BC
